:020000040800F2
:1000000000E80020AD010008B9350008F91D00081E
:10001000B535000801030008D93A000800000000C7
:100020000000000000000000000000001D38000873
:100030002104000800000000BD3500082138000838
:10004000C7010008C7010008C7010008C701000870
:10005000C7010008C701000825040008C7010008FF
:10006000C7010008C7010008C7010008C701000850
:10007000C7010008C7010008C7010008C701000840
:10008000C7010008C7010008C70100080000000000
:10009000000000000000000000000000C701000890
:1000A000C7010008C7010008C7010008C701000810
:1000B000DD380008C7010008C7010008C7010008B3
:1000C000C7010008C7010008C7010008C7010008F0
:1000D000C7010008C7010008C701000800000000B0
:1000E000C7010008C7010008C701000800000000A0
:1000F000000000000000000000000000C701000830
:1001000000000000C7010008C7010008C70100087F
:1001100000000000000000000000000000000000DF
:10012000C7010008C701000815040008C70100083E
:10013000C7010008000000000000000000000000EF
:10014000000000000000000000000000C7010008DF
:10015000C7010008C7010008C7010008C70100085F
:10016000C7010008C70100080000000000000000EF
:10017000000000000000000000000000000000007F
:1001800000000000C701000800000000000000009F
:10019000C7010008C7010008DFF80CD000F098F88C
:1001A0000048004795DD020800E800200648804727
:1001B00006480047FEE7FEE7FEE7FEE7FEE7FEE74C
:1001C000FEE7FEE7FEE7FEE7C938000899010008F0
:1001D0002DE9F05F0546002092469B46884606467C
:1001E000814640241BE0284641464746224600F00F
:1001F0005FF853465A46C01A914110D3114618462B
:10020000224600F046F82D1A67EB01084F462246B9
:100210000120002100F03DF817EB00094E41201E9F
:10022000A4F10104DFDC484631462A464346BDE8D6
:10023000F09FD2B201E000F8012B491EFBD27047BB
:100240000022F6E710B513460A4604461946FFF7A2
:10025000F0FF204610BD421C10F8011B0029FBD105
:10026000801A704710B5002200E0521C835C8C5C41
:10027000A34201D1002BF8D1D8B2E1B2401A10BD8F
:10028000034611F8012B00F8012B002AF9D118467A
:100290007047202A04DB203A00FA02F10020704760
:1002A0009140C2F1200320FA03F3194390407047B4
:1002B000202A04DB203A21FA02F00021704721FABB
:1002C00002F3D040C2F12002914008431946704722
:1002D0001CB509480090094801900546009C06E0BD
:1002E000E06840F0010394E8070098471034AC42FE
:1002F000F6D3FFF755FF0000A8D10308C8D10308C3
:10030000FEE7000040F25C00C2F20000152102226C
:1003100002F0B4B880B582B040F25C000DF1040C7C
:10032000C2F20000152103220423CDF800C001F021
:10033000E3FF9DF804009DF805109DF806209DF848
:10034000073000F00F0041EA002002F00F0103F136
:100350000F0242EA012140F2C82240F21713C0F115
:10036000EF00C2F20002591AC2E9000102B080BDDA
:1003700010B586B000200590009043F63000C4F21E
:100380000200016840F2004441F00201016000688F
:10039000C4F2020400F00200009000984FF4807054
:1003A00001900120CDE902000320049001A920461C
:1003B00000F046FA20464FF48071012200F016FB4F
:1003C00040F25C04C2F20004204601F017FD204612
:1003D0001521F922052302F0E5F806B010BD000052
:1003E00010B540F20044C4F2020420464FF480717C
:1003F000002200F0FBFA0A2000F000FA20464FF439
:100400008071012200F0F2FA6420BDE8104000F093
:10041000F5B9000040F20850C2F2000000F00AB83E
:1004200070470000012000F0FFB9000072B600BF65
:10043000FEE70000F0B581B004460020009040F2D5
:100440006800C2F200000268D4E9166048F2B513F1
:1004500037680821C1F64E3381403942A2FB03259B
:100460000CD0226813685B0708D5136823F00403D7
:100470001360B160616D41F001016165012181404E
:10048000394208D022685269120604D5B160616D04
:1004900041F00201616504218140394208D022689F
:1004A0001268920704D5B160616D41F00401616585
:1004B00010218140394217D020680268120713D5F5
:1004C000B16002680168520308D4C90508D4016804
:1004D00021F008010160216C21B905E008033FD437
:1004E000216C09B120468847E16D202000FA01F215
:1004F0003A4241D020680368DB063DD5B26094F8EB
:1005000035300268052B1BD122F0160202604269C9
:1005100022F080024261226C0AB9A26C1AB1026810
:1005200022F0080202603F208840B060012084F879
:100530003500216D0020002984F8340052D157E0A5
:100540000168520310D4C90512D4016821F01001CA
:100550000160012084F83500002084F8340007E0B1
:10056000A16C0029BED1BFE7080301D4616C00E093
:10057000E16B09B120468847606DC8B3606DC00764
:100580002ED0052084F835002068A90A026822F0E0
:1005900001020260009A01328A4200921AD802686F
:1005A000D20717D0009A01328A42009212D802680C
:1005B000D2070FD0009A01328A4200920AD802680C
:1005C000D20707D0009A01328A42009202D802680C
:1005D000D207DFD1012084F83500002084F83400F0
:1005E000E16C29B1204601B0BDE8F040084700BFEA
:1005F00001B0F0BD2DE9F041044600F0FDF9ECB189
:100600000546022084F835000020216884F8340073
:10061000086820F00100086021680868C00711D050
:1006200000F0EAF9401B0528F6D903252023032012
:10063000636584F83550BDE8F08100BF0120BDE856
:10064000F08100BF086848F23F02CFF21002D4E9FF
:10065000013500EA020C04F10C0898E8C10143EAF4
:100660000C032B431843D4E9072E3043384310437F
:10067000626A40EA0E00042A40EA08031CD1206B9B
:10068000D4E90A2E40EA0E00184308604869BEF11A
:10069000000F20F0030040EA020040F0040C11D0EB
:1006A000B8F5005F36D0B8F1000F45D1022A46D028
:1006B000012A3BD032B942E00B60486920F00700C4
:1006C00040EA020C01F0F8004AF6AB221038CAF6F4
:1006D000AA22A0FB02231A0948F6B853C1F814C095
:1006E000C0F603039A5C40F2FF335F284FF03F00EF
:1006F00021EA030100FA02F088BF0431C4E91612AE
:100700008860002301250020636584F83550BDE82A
:10071000F08100BF032AD5D8012540230120DFE85E
:1007200002F0030E030500BF82E700BFAEF1C07008
:10073000B0FA80F0400904E0032A04D3C2D1CEF31A
:1007400000600028BED0012540230120636584F8A5
:100750003550BDE8F081000090F834C0BCF1010FC5
:1007600004BF0220704770B54FF0010C80F834C010
:10077000D0F858E090F835C0BCF1010F38D14FF0F7
:10078000020C80F835C04FF0000CC0F854C0D0F80F
:1007900000C08468056CC06DDCF80060402C26F455
:1007A0008026CCF80060CCF804300B4604BF13461A
:1007B0000A463F2101FA00F0CCF80830CCF80C20B2
:1007C000CEF80800DCF8000040F01600CCF800007D
:1007D0002DB1DCF8000040F00800CCF80000DCF897
:1007E000000040F00100CCF80000002070BD00BF08
:1007F000002180F83410022070BD0000B0B504461E
:1008000000F0FAF8054640F20000C2F2000000785D
:10081000611C18BF044400BF00F0EEF8401BA0426A
:10082000FAD3B0BD7047000043F61441C4F2010191
:100830000A68024214BF08607047FFF7F3BF000068
:100840002DE9F04F82B000F13E4707F1FF778605B2
:1008500046EA972741F20006C4F20206072243F651
:10086000004EB04208BF0422C4F2010E042F38BF6C
:100870003A46002600274FF00008009209E000BF2A
:1008800008F101080237B8F1100F06F1040600F074
:10089000A3800D68012202FA08F415EA0409EFD0DA
:1008A000D1F804B003220BF0030CACF10105BA40FF
:1008B000012D6FEA020A0FD88268CD6802EA0A02A7
:1008C000BD402A4382604268A243CBF3001404FA7D
:1008D00008F42243426005E0BCF1030F02D14FF05F
:1008E000030C1EE0C2688C6802EA0A02BC40224384
:1008F000BCF1020FC26014D16FF0030202EA580289
:100900000244D2F820C006F01C040F230D69A34056
:100910002CEA0303A5402B431362D1F804B00BF07B
:10092000030C02680CFA07F302EA0A021A431BF4EA
:10093000403F0260A4D0002243F644030192C4F277
:1009400002031A684FF6084C42F480421A601A6893
:10095000CFF6FF7C02F480420192019A28F0030254
:10096000724452F80C3006F00C050F24AC40A3433F
:10097000009C04FA05F52B4342F80C30DEF8082001
:100980004B6842EA090543F60C4CDC0258BF22EAE8
:100990000905CEF80850C4F2010CDCF800209C02D6
:1009A00042EA090558BF22EA0905CCF80050DEF8F2
:1009B00004209C0342EA090558BF22EA0905CEF843
:1009C0000450DEF80020DB0342EA090558BF22EAA2
:1009D0000905CEF8005053E702B0BDE8F08F0000E3
:1009E0000069084018BF012070470000002A08BFB6
:1009F00009048161704700004DF6F810C2F2000052
:100A000000687047002804BF01207047F0B581B02E
:100A1000044690F83D0028B9002084F83C002046A8
:100A200000F0A2F8242084F83D002068016821F03D
:100A300001010160016841F400410160016821F495
:100A40000041016000F050FA636848F2A16CC0F206
:100A5000010C40F60011C0F23D0163453CBF48F275
:100A60008041C0F21E01884202D2012001B0F0BDD7
:100A70004DF68361C4F21B31A0FB01122168970C73
:100A8000D1F804E04FF496762EF03F0545EA924502
:100A90004D60774348F638160D6AC0F24106A7FB51
:100AA000067625F03F07634538BF960C721C3A4323
:100AB0000A62CA6948F2A0664CF6FF77C0F20106E6
:100AC000B34222EA07020BD801385B00B0FBF3F017
:100AD00001306FF31F30042898BF04201BE000BFD3
:100AE000A768013857B119277B43B0FBF3F00130F9
:100AF0006FF31F3070B100F5804007E003EB430354
:100B0000B0FBF3F001306FF31F3018B100F5004077
:100B100001E000BF01201043C8610868D4E9072341
:100B200020F0C000104318430860886848F2FF3284
:100B300004F10C0790438CCF18431043A6698860DA
:100B4000C86820F0FF0038433043C860086840F0B0
:100B50000100086000202021206484F83D102063FB
:100B600084F83E0001B0F0BD2DE9F04786B0006882
:100B700045F60047C4F20007B84203D006B0BDE80E
:100B8000F08700BF002643F630050196C4F2020547
:100B9000286801AC40F00400286028684FF0120873
:100BA00000F0040001900198019628684FF00309B5
:100BB00040F00100286028684FF0040A00F00100AE
:100BC000019001984FF40070019007F5D63021464E
:100BD000CDE90286CDF81090CDF814A0FFF730FED5
:100BE0004FF48070CDE9010803A880E8400607F5BE
:100BF000D2302146FFF724FE0096286940F4000019
:100C00002861286900F400000090009806B0BDE853
:100C1000F087000040F200004DF6F811C2F200002B
:100C2000C2F2000100780A681044086070470000B2
:100C300080B543F60040C4F20200016841F400713F
:100C40000160016841F480610160016841F48071D4
:100C50000160032000F086F80F2000F005F800F096
:100C600027F8002080BD000070B540F20006C2F2F7
:100C7000000640F268013278C2F200014FF47A7344
:100C80000968B3FBF2F20446B1FBF2F1084600F04A
:100C9000CDFD0F2C4FF0010508D838B94FF0FF30CB
:100CA00021460022002500F031F87460284670BD0E
:100CB00082B0002043F640010190C4F202014A686C
:100CC00042F480424A604A6802F480420192019AEA
:100CD0000090086840F080500860086800F080507C
:100CE0000090009802B07047002848BF704700F09D
:100CF0001F01012202FA01F11C2202EAD0004EF289
:100D00000012CEF2000281507047000010B54EF67E
:100D10000C5CCEF2000CDCF80030C3F3022E8EF037
:100D20000704042C28BF0424BEF103034FF0FF3E48
:100D30000EFA04F438BF0023A14399400EFA03F3DE
:100D40009A43114300F00F0200F160430901043A95
:100D500003F564436244002848BF02F10C03197094
:100D600010BD00004EF60C51CEF200010A684FF69D
:100D7000FF031A4060F30A2242F0806040F0FD70E9
:100D800008607047002804BF012070472DE9F0413A
:100D900043F60808C4F202080446D8F8F8030D46E2
:100DA00000F00700884207D288F8F853D8F8F80313
:100DB00000F00700A84277D12068810717D54107C6
:100DC00005D5D8F8001041F4E051C8F8001001072B
:100DD00005D5D8F8001041F46041C8F80010D8F8E3
:100DE0000010A26821F0F0011143C8F80010C007FC
:100DF00040D1D8F8F80300F00700A84207D988F8D6
:100E0000F853D8F8F80300F00700A8424CD1206846
:100E1000410707D5D8F80010E26821F4E0511143EA
:100E2000C8F80010000708D5D8F80000216920F4A0
:100E3000604040EAC100C8F8000000F07DF8D8F832
:100E4000001045F2FC72C1F30311C0F60302515CBD
:100E500040F2680220FA01F140F20400C2F2000000
:100E60000068C2F200021160FFF7FEFE0020BDE83C
:100E7000F08100BF6068811E022907D258F8081C63
:100E800089015CBF0120BDE8F08111E0012807D194
:100E900058F8081C89035CBF0120BDE8F08107E019
:100EA00058F8081C890703D40120BDE8F08100BF71
:100EB000D8F8001021F003010843C8F80000FFF73C
:100EC0009BFD064641F28837D8F80000616800F0C3
:100ED0000C00B0EB810F8CD0FFF78EFD801BB84269
:100EE000F2D90320BDE8F08140F2680043F6080122
:100EF000C2F20000C4F202010068096845F60C0263
:100F0000C1F38221C0F60302515CC8407047000063
:100F100040F2680043F60801C2F20000C4F2020188
:100F20000068096845F60C02C1F34231C0F60302BD
:100F3000515CC8407047000010B543F60404C4F289
:100F40000204606800F00C0008280BD0042819BFC8
:100F500042F20040C0F2F40047F64000C0F27D10BB
:100F600010BD00BF206821682368490247F6400190
:100F7000C0F27D1100F03F02C3F388105CBF42F263
:100F80000041C0F2F401A1FB00010023FFF720F9AA
:100F900021680222C1F3014102EB4101B0FBF1F0F3
:100FA00010BD0000002804BF012070472DE9F0416A
:100FB00082B00446007843F60006C007C4F2020679
:100FC0000CD0B06800F00C00042840F0818030683C
:100FD000800303D56068002800F06A8120788007CC
:100FE0001BD5B06810F00C0F09D0B06800F00C00F1
:100FF000082840F087807068400200F183803068E4
:10100000800703D5E068012840F0528130682169EB
:1010100020F0F80040EAC10030602078000713D4C7
:10102000207840072AD4A569002D00F03C81B068E3
:1010300000F00C00082840F0A180012D40F0108144
:10104000012002B0BDE8F0816069002840F2000094
:10105000C4F2472000F07E800121C0F8801EFFF717
:10106000CBFC0546706F8007DAD4FFF7C5FC401B48
:101070000228F7D9032002B0BDE8F081306C5FEAA6
:10108000C0080AD400200190306C40F080503064D9
:10109000306C00F080500190019847F20007C4F2D4
:1010A00000073868C00547D4386840F4807038605D
:1010B000FFF7A2FC054600BF3868C0053CD4FFF727
:1010C0009BFC401B0228F7D9032002B0BDE8F08149
:1010D000B06800F00C00082803D1706840023FF5AA
:1010E00076AF6068B0F5803F07D0B0F5A02F40F034
:1010F0009B80306840F480203060306840F480305D
:1011000030609BE0E06800285CD00020C4F24720FB
:1011100001210160FFF770FC054600BF30688007C1
:101120003FF574AFFFF768FC401B0228F6D9032097
:1011300002B0BDE8F08100BFA068012805D00528F5
:1011400054D1306F40F004003067306F40F0010040
:10115000306755E00021C0F8801EFFF74DFC0546C2
:10116000706F80077FF55CAFFFF746FC401B0228DD
:10117000F6D9032002B0BDE8F08100BF0027C4F219
:10118000472700203866FFF737FC022D05460DD1B2
:101190003068800140F19080FFF72EFC401B022850
:1011A0004FF00300F4D902B0BDE8F081306880014F
:1011B00079D5FFF721FC401B02284FF00300F5D939
:1011C000F1E700BF0020C4F2472000210160FFF7D3
:1011D00013FC0546306880077FF51FAFFFF70CFC56
:1011E000401B02284FF00300F4D9DCE7316F0028E0
:1011F00021F001013167316F21F0040131677DD0A9
:10120000FFF7FAFB054641F2883700BF306F8007D1
:1012100000F18680FFF7F0FB401BB842F6D90320AF
:1012200002B0BDE8F08100BF3168002821F48031B0
:101230003160316821F4802131607BD0FFF7DCFB25
:10124000054600BF306880033FF5C8AEFFF7D4FB0A
:10125000401B6428F6D9032002B0BDE8F08100BF2E
:101260007068E16900F480028A4221D1216A00F0AD
:101270003F028A421CD147F6C071626A0140B1EB5D
:10128000821F15D1A16A4FF6FF73C903994300F479
:101290004032A1F580318A420AD1E16A00F07060E3
:1012A000B0EB016F04D1002002B0BDE8F08100BFB7
:1012B000012002B0BDE8F08104F11C052FCD0843E8
:1012C00040EA8210D9034FF6FF729143A1F58031B5
:1012D00040EA05600843706001203866FFF78CFB28
:1012E000044600BF30688001DDD4FFF785FB001B9A
:1012F00002284FF00300F5D955E700BFFFF77CFB4C
:10130000054641F2883700BF306F800708D5FFF7E8
:1013100073FB401BB8424FF00300F5D943E700BF11
:10132000B8F1000F3FF57FAE306C20F08050306494
:1013300079E600BFFFF760FB054600BF3068800319
:101340007FF54CAEFFF758FB401B64284FF00300BD
:10135000F4D928E77047000070B538B10446406AF8
:1013600030B10020206104F1140007E0012070BDBD
:101370006068B0F5827F03D004F11C000021016099
:101380000026A66294F8510020B9204684F85060E7
:1013900000F03CF8022084F8510094E80F0001F4BA
:1013A0008271056802F4044225F04005056011448D
:1013B00003F400622369114403F0020263691144DB
:1013C00003F00102A369E569114403F400721144BA
:1013D00005F03802256A114405F08002A56A114320
:1013E00005F4005211430160626A042101EA1341CD
:1013F00002F0100211444160C16921F40061C16131
:101400000120666584F85100304670BD70B586B025
:101410000446016843F20000C4F20100814201D099
:1014200006B070BD002643F630010196C4F20201F9
:101430004A6900F5544042F480524A614A6902F414
:1014400080520192019A01960A6842F002020A60F3
:10145000096801F0020101910199282101910221FD
:10146000CDE90216032104910521059101A9FFF799
:10147000E7F940F2085546F24040C2F20005C4F2D6
:1014800002004FF0806140224FF4806385E84700FE
:1014900005F110004FF4006C4FF4005E80E8085036
:1014A0002846C5E907666E62FFF7A4F8002818BF52
:1014B000FEF7BCFFA564AC6306B070BD2DE9F0413A
:1014C00084B01D4616460F460446FFF795FA94F879
:1014D000511001290ED18046002F4FF0010018BF96
:1014E000002E03D104B0BDE8F08100BF94F8500095
:1014F000012803D1022004B0BDE8F081012084F866
:1015000050000320002184F8510061652763A686FE
:10151000E686A163A187E187A0682164B0F5004F4A
:101520002068616407D1016821F040010160016811
:1015300041F4804101600168490603D4016841F02B
:10154000400101606168731EE268B1FA81F1B3FA8B
:1015500083F349095B09B2F5006F41EA030139D110
:1015600031B137F8021BC1602763E08E0138E08695
:10157000E08E002870D0681C0BD11AE0216B31F886
:10158000022BC2602163E08E0138E086E08E0028E5
:1015900062D0206881688907F0D4FFF72DFAA0EBAC
:1015A0000800A842F2D338E0FFF726FAE08E0028C0
:1015B00052D0206881688907F6D5216B31F8022B5B
:1015C000C2602163E08E0138E086E08E0028F0D111
:1015D00042E000BF39B139780173206B01302063DC
:1015E000E08E0138E086E08EB0B3681C0BD123E0BA
:1015F000216B09780173206B01302063E08E013884
:10160000E086E08E40B3206881688907F0D4FFF758
:10161000F3F9A0EB0800A842F3D3012084F85100AD
:10162000002084F85000032004B0BDE8F08100BF22
:10163000FFF7E2F9E08E78B1206881688907F7D575
:10164000216B09780173206B01302063E08E013833
:10165000E086E08E0028EFD12046022101222B46B1
:10166000CDF8008002F04AF8E0B1606D40F0200053
:10167000606520206065A06838B90020029020686D
:10168000C1680291806802900298012084F851009C
:10169000002084F85000606D002818BF012004B0BD
:1016A000BDE8F08140F26800C2F20000006849F62F
:1016B0008171C1F25E61A0FB0101480D4FF47A71A6
:1016C000484303906068B0F5827F0BD120468021AB
:1016D00000222B46CDF8008002F010F80028C4D17B
:1016E000C9E700BF03980028C5D0039801380390CC
:1016F000206880680006BED503980028BBD00398F8
:1017000001380390206880680006B4D5039800284B
:10171000B1D0039801380390206880680006AAD5EC
:1017200003980028A7D003980138039020688068A8
:101730000006D7D49FE7000010B5044690F851008A
:1017400001280BD100294FF0010018BF002A01D158
:1017500010BD00BF94F85000012801D1022010BD37
:10176000012084F8500003204FF0000E84F851004F
:10177000C4F854E02163A286E286C4F838E0C4E9E4
:1017800010EEA4F83CE0A4F83EE0A0682268B0F5B2
:10179000004F07D1106820F040001060106840F43E
:1017A00080401060A06C43F2E15C43F2E953C0F664
:1017B000000CC0F60003C0E90F3C43F2C153C0F671
:1017C0000003C0E9133EE38E0C32FEF7C5FF48B1BB
:1017D000606D40F010006065002084F8500001202A
:1017E00010BD00BF21680868400603D4086840F0B7
:1017F00040000860002084F850004A6842F020024F
:101800004A604A6842F002024A6010BD7047000018
:10181000704700004EF21001CEF200010A68042861
:1018200022F0040208BF04320A607047411E002003
:10183000B0EB116F1CBF012070474EF21002CEF2C8
:10184000000251604EF62351CEF20001F0230B70DE
:1018500007219060116070477047000070470000DA
:1018600090F83C20012A4FF0020241D010B580F8D8
:101870003D200268D2F804E0D2F808C00C682EF0CF
:101880007003234340F6FF34C4F20004A2425360C5
:1018900010DCB2F1804F1ED040F20043C4F20003CE
:1018A0009A4218D040F60003C4F200039A4212D0C4
:1018B00016E000BF40F60043C4F200039A420AD08B
:1018C00044F20003C4F201039A4204D00023C4F29C
:1018D00001039A4204D149682CF0800319439160B6
:1018E0000121002280F83D1080F83C20BDE8104026
:1018F00010467047002804BF0120704710B5044609
:1019000090F83D0028B9002084F83C00204600F003
:101910001FF8022084F83D002068211D01F0E4FF3B
:10192000012084F8460084F83E0084F83F0084F8E3
:10193000400084F8410084F8420084F8430084F8B1
:10194000440084F8450084F83D00002010BD0000EC
:101950000068B0F1804F18BF704780B582B000209A
:10196000019043F64000C4F202000168002241F0F9
:10197000010101600068002100F001000190019860
:101980001C20FFF7C3F91C2002B0BDE88040FFF720
:10199000ABB9000090F83D1001291CBF0120704731
:1019A000022180F83D10006840F6FF32C168C4F2A1
:1019B0000002904241F00101C1600FDCB0F1804FA4
:1019C0001DD040F20041C4F20001884217D040F619
:1019D0000001C4F20001884211D017E040F6004136
:1019E000C4F2000188420AD044F20001C4F20101AD
:1019F000884204D00021C4F20101884206D18168E6
:101A000001F00701062904BF00207047016841F07A
:101A1000010101600020704790F83C20012A4FF03E
:101A2000020200F0C58080B580F83D20D0F800C0EB
:101A30004FF67772DCF8083023EA0202CCF808206F
:101A40000B684F2B28DC1F2B44DD202B45D0302B7F
:101A500043D0402B40F0AE80D1F804E0C968DCF8F8
:101A60002030DCF8202022F00102CCF82020DCF825
:101A7000182022F0F00242EA011123F00A0242EAA1
:101A80000E02CCF81810CCF82020DCF8081041F039
:101A9000470121F0300180E06F2B27DDB3F5005FB7
:101AA00048D0B3F5805F7AD0702B40F08380D1E9C5
:101AB00001E3C968DCF8082043EA0E0322F47F4200
:101AC00043EA01211143CCF80810DCF8081041F07A
:101AD000770162E00BB1102B6CD1DCF8081021F01B
:101AE0007001194341F0070157E000BF502B35D07A
:101AF000602B5FD1D1F804E0C968DCF82030DCF855
:101B0000202022F01002CCF82020DCF8182022F44B
:101B1000704242EA013123F0A00242EA0E12CCF8F0
:101B20001810CCF82020DCF8081041F0670121F0F3
:101B3000100132E0D1E901E3C968DCF8082043EA8A
:101B40000E0322F47F4243EA01211143CCF808102E
:101B5000DCF8081041F480411FE000BFD1F804E038
:101B6000C968DCF82030DCF8202022F00102CCF833
:101B70002020DCF8182022F0F00242EA011123F0C4
:101B80000A0242EA0E02CCF81810CCF82020DCF849
:101B9000081041F0570121F02001CCF80810002274
:101BA000012180F83D10002180F83C10BDE8804004
:101BB000104670470122F3E77047000070B50446F5
:101BC0000068C5680669B10716D515F0020113D083
:101BD0006FF002010161012121778069800703D044
:101BE0002046FFF7E9FF05E0204600F08FF8204689
:101BF00000F08EF800202077700719D515F004004A
:101C000016D020686FF004010161022121778069FC
:101C100010F4407F04D02046FFF7CEFF06E000BF5F
:101C2000204600F073F8204600F072F8002020777C
:101C3000300717D515F0080014D020686FF00801A0
:101C4000016104212177C069800703D02046FFF796
:101C5000B3FF05E0204600F059F8204600F058F8A0
:101C600000202077F00619D515F0100016D0206856
:101C70006FF01001016108212177C06910F4407FE5
:101C800004D02046FFF798FF06E000BF204600F092
:101C90003DF8204600F03CF800202077F00718BF00
:101CA00015F0010002D1300609D412E020686FF06F
:101CB00001010161204600F02DF8300609D515F02C
:101CC000800006D020686FF0800101612046FFF798
:101CD000C3FD700609D515F0400006D020686FF0EE
:101CE00040010161204600F01FF8B00658BF70BDEA
:101CF00015F0200008D021686FF0200220460A610C
:101D0000BDE87040FFF7AABD70BD0000704700003D
:101D10007047000040F21461C2F20001884218BF0F
:101D2000704701202BF0FCB870470000002804BF6A
:101D30000120704710B5044690F8410028B90020F2
:101D400084F84000204600F021F8242084F8410067
:101D50002068C16821F40051C160204601F044FEB2
:101D60002068016921F490410161416921F02A0153
:101D70004161C16841F40051C160002020216064CC
:101D800084F8411084F84210606310BD016841F28C
:101D90000000C4F20100814218BF704780B586B0D0
:101DA000002143F630020191C4F20202536900F5AA
:101DB000704043F010035361536903F01003019323
:101DC000019B0191136843F001031360126802F054
:101DD00001020192019A4FF4C06201920222CDE900
:101DE0000221032104910721059101A9FEF728FD95
:101DF00006B0BDE880407047FEE70000B0B586B091
:101E0000044600202189059001200191CDE90200BE
:101E10000221206801AD04912946FEF711FD618978
:101E2000606801912946FEF70BFD06B0B0BD0000C9
:101E3000F0B585B0044600890025CDE900050120F4
:101E4000029020680226694604950396FEF7F8FC86
:101E50006089616800048861022005F059FE6068AD
:101E60006189826911438161012005F051FE20687A
:101E70002189FEF7B5FD0138B0FA80F04709608985
:101E8000616800048861022005F042FE6068618993
:101E9000826911438161012005F03AFE20682189A1
:101EA000FEF79EFD0138B0FA80F0400940EA47078E
:101EB0006089616800048861022005F029FE60687D
:101EC0006189826911438161012005F021FE20684A
:101ED0002189FEF785FD0138B0FA80F04009B9008C
:101EE00041EA40076089616800048861022005F0CA
:101EF0000FFE60686189826911438161012005F0EC
:101F000007FE20682189FEF76BFD0138B0FA80F0EA
:101F1000400907446089616800048861022005F077
:101F2000F7FD60686189826911438161012005F0D4
:101F3000EFFD20682189FEF753FD0138B0FA80F0EB
:101F40004009B90041EA400760896168000488617E
:101F5000022005F0DDFD60686189826911438161BD
:101F6000012005F0D5FD20682189FEF739FD0138F3
:101F7000B0FA80F040090744608961680004886114
:101F8000022005F0C5FD60686189826911438161A5
:101F9000012005F0BDFD20682189FEF721FD0138F3
:101FA000B0FA80F04009B90041EA400760896168F1
:101FB00000048861022005F0ABFD606861898269D8
:101FC00011438161012005F0A3FD20682189FEF7FE
:101FD00007FD0138B0FA80F0400907446089616864
:101FE000000488612089694600901120CDE901052F
:101FF000206804950396FEF723FCF8B205B0F0BD07
:1020000070B5044640890D464EB26168000488618F
:10201000022005F07DFD2089B6F1FF3F02DD216839
:10202000000402E021688A6910438861012005F0FC
:102030006FFD012005F06CFD6068618982691143C4
:102040008161012005F064FD608961680004886198
:10205000022005F05DFD69062089216852BF000459
:102060008A6910438861012005F052FD012005F0C6
:102070004FFD60686189826911438161012005F02B
:1020800047FD6089616800048861022005F040FD19
:10209000A9062089216852BF00048A69104388611B
:1020A000012005F035FD012005F032FD60686189F1
:1020B000826911438161012005F02AFD6089616810
:1020C00000048861022005F023FDE90620892168CB
:1020D00052BF00048A6910438861012005F018FD91
:1020E000012005F015FD60686189826911438161F5
:1020F000012005F00DFD60896168000488610220FF
:1021000005F006FD29072089216852BF00048A696D
:1021100010438861012005F0FBFC012005F0F8FC6C
:1021200060686189826911438161012005F0F0FCDA
:102130006089616800048861022005F0E9FC690794
:102140002089216852BF00048A69104388610120F8
:1021500005F0DEFC012005F0DBFC60686189826926
:1021600011438161012005F0D3FC6089616800049E
:102170008861022005F0CCFCA9072089216852BFA4
:1021800000048A6910438861012005F0C1FC012028
:1021900005F0BEFC6068618982691143816101209C
:1021A00005F0B6FC6089616800048861022005F0D2
:1021B000AFFCE907208921680EBF00048A6910433B
:1021C0008861012005F0A4FC012005F0A1FC6068F5
:1021D0006189826911438161012005F099FC608960
:1021E0006268010402209161BDE8704005F090BC76
:1021F00070B586B0054600890026CDE901060120AC
:1022000003902868022401A905960494FEF718FBA0
:10221000D5E900016A898B691A438A612989FEF729
:10222000DFFB012852D1012005F072FC28682989C2
:10223000FEF7D6FB012849D1012005F069FC28688A
:102240002989FEF7CDFB012840D1012005F060FC73
:1022500028682989FEF7C4FB012837D1012005F041
:1022600057FC28682989FEF7BBFB01282ED10120E5
:10227000012405F04DFC29890020019111210590D0
:10228000CDE9021002212868049101A9FEF7D8FACD
:102290006889696800048861022005F039FC288992
:1022A000296800048861012005F032FC68686989AA
:1022B000826911438161012005F02AFC286829897F
:1022C00082690126114381610FE000BF288901A9BD
:1022D00001901120CDE90206286805960494FEF7C6
:1022E000AFFA6889696800048861204605F010FC2F
:1022F000304606B070BD00002DE9F04381B00446C1
:10230000006899469046228983690F4643EA020194
:102310008161022005F0FCFB606861898269012609
:1023200011438161012005F0F3FB2089216800043D
:102330008861012005F0ECFB608961680004886118
:10234000012005F0E5FB7F00F9B22046FFF758FEBB
:102350002046FFF74DFF00286ED120464146FFF78B
:102360004FFE2046FFF744FF206821898269114310
:102370008161022005F0CCFB6068618982691143AC
:102380008161012005F0C4FB208921680004886177
:10239000012005F0BDFB60896168000488610120AF
:1023A00005F0B6FB47F00100C1B22046FFF728FE5A
:1023B0002046FFF71DFFB9F1000F25D0089EA9F1B7
:1023C0000107002503E000BF0135A9451CD02046C8
:1023D000FFF72EFDAF427055F6D920892168000421
:1023E0008861012005F094FB60686189826911436E
:1023F0008161012005F08CFB6089616800048861BF
:10240000012005F085FBDFE72068218982691143FF
:102410008161012005F07CFB60686189826911435C
:102420008161012005F074FB6089616800048861A6
:10243000022005F06DFB0026608961680004886158
:10244000022005F065FB20892168000488610120D5
:1024500005F05EFB6068618982691143816101203A
:1024600005F056FB206821898269114381610120B2
:1024700005F04EFB304601B0BDE8F08370B5044670
:1024800000681546228983690E4643EA020181618C
:10249000022005F03DFB606861898269114381611A
:1024A000012005F035FB20892168000488610120A6
:1024B00005F02EFB6089616800048861012005F049
:1024C00027FB7600F1B22046FFF79AFD2046FFF782
:1024D0008FFE20462946FFF793FD2046FFF788FE32
:1024E00020682189826911438161022005F010FB77
:1024F00060686189826911438161012005F008FBF0
:102500002089216800048861012005F001FB6089B1
:10251000616800048861012005F0FAFA701CC1B2FC
:102520002046FFF76DFD2046FFF762FE2046FFF7CD
:102530007FFC216822898B69054643EA0200886195
:10254000012005F0E5FA60686189826911438161C3
:10255000012005F0DDFA60896168000488610220CD
:1025600005F0D6FA6089616800048861022005F0F0
:10257000CFFA2089216800048861012005F0C8FA9B
:1025800060686189826911438161012005F0C0FAA8
:1025900020682189826911438161012005F0B8FA20
:1025A000284670BDF0B581B0044600681D46164649
:1025B000228983690F4643EA02018161022005F006
:1025C000A7FA60686189826911438161012005F081
:1025D0009FFA2089216800048861012005F098FA9B
:1025E0006089616800048861012005F091FA780033
:1025F000C1B22046FFF704FD2046FFF7F9FDE8B120
:102600006089616800048861022005F081FA2089F0
:102610002168000488610120012505F079FA6068CD
:102620006189826911438161012005F071FA206896
:1026300021898269114381612DE000BF2046314626
:10264000FFF7DEFC2046FFF7D3FD20462946FFF7C3
:10265000D7FC2046FFF7CCFD6089616800048861E3
:10266000022005F055FA20892168000488610120C4
:1026700005F04EFA60686189826911438161012029
:1026800005F046FA206821898269114381610120A1
:1026900005F03EFA0025012005F03AFA284601B07F
:1026A000F0BD00002DE9F04383B040F60004C4F211
:1026B000020416468946074620464FF48051002200
:1026C0009846FEF793F940F2BC552A20C2F2000565
:1026D0008DF801000DF10101284601220123FEF7CA
:1026E000EDFE20464FF480510122FEF77FF978BAC3
:1026F000ADF802000DF10201284602220123FEF787
:10270000DDFE70BAADF8040001A9284602220123BB
:10271000FEF7D4FE20464FF480510022FEF766F902
:102720002B208DF806000DF1060128460122012319
:10273000FEF7C4FE20464FF480510122FEF756F901
:1027400099FA99F0ADF807000DF107012846022229
:102750000123FEF7B3FE98FA98F0ADF809000DF1E9
:102760000901284602220123FEF7A8FE20464FF465
:1027700080510022FEF73AF92C208DF80B000DF164
:102780000B01284601220123FEF798FE20464FF454
:1027900080510122FEF72AF903B0BDE8F083000062
:1027A00070B5141A5D1A14311433049E01340135C6
:1027B00089B29BB26543FFF775FF40F2BC54C2F289
:1027C00000044FF400602168E0600868AAB240F499
:1027D0000060086020463146FEF7AEFF40F2085028
:1027E000C2F20000006800BF416831B1416821B108
:1027F000416811B141680029F6D100202168E060EC
:10280000086820F40060086070BD00002DE9F04306
:1028100081B098461546814601F11400013A133300
:102820000E4681B292B29BB24846FFF73BFF464547
:1028300038BFA9450DD2089C4F4600BF204600F086
:10284000A3FD0137B8B2A842F8D30136B0B2404573
:10285000F2D301B0BDE8F0832DE9F04186B000204D
:1028600043F630010590CDE903000090C4F2020167
:102870000A68002542F004020A600A68C4F20205F0
:1028800002F004020092009A00900A6801AC42F043
:1028900002020A600A684FF0010802F00202009288
:1028A000009A00900A68032742F008020A600A684A
:1028B00002F008020092009A0090086840F00100BF
:1028C00008600868214600F00100009000984FF46D
:1028D000004001902846CDF808800497FDF7B0FF2E
:1028E00028464FF400410122FEF780F8102005F53C
:1028F0008066CDE90108304621460497FDF7A0FF28
:10290000304610210122FEF771F84FF4805005F592
:102910000066CDE90108304621460497FDF790FF97
:1029200030464FF480510122FEF760F8042005F58F
:102930004065CDE90108284621460497FDF780FF50
:10294000284604210122FEF751F806B0BDE8F081C7
:102950002DE9F04F81B0FFF77FFF40F60004C4F28D
:10296000020404F58060042100224FF00009FEF704
:102970003DF8A4F58065284610210022FEF736F8C0
:10298000642004F0D9FF2846102101224FF00108ED
:10299000FEF72CF8642004F0CFFF20464FF480515E
:1029A0000022FEF723F840F2BC551120C2F20005C8
:1029B0008DF803000DF10301284601220123FEF7E3
:1029C0007DFD20464FF480510122FEF70FF878205C
:1029D00004F0B2FF20464FF480510022FEF706F8C3
:1029E00036208DF803000DF1030128460122012352
:1029F000FEF764FD20464FF480510122FDF7F6FFFB
:102A0000C0260DF103012846012201238DF8036041
:102A1000FEF754FD20464FF480510022FDF7E6FFFB
:102A20003A208DF803000DF103012846012201230D
:102A3000FEF744FD20464FF480510122FDF7D6FFFA
:102A400005208DF803000DF1030128460122012322
:102A5000FEF734FD20464FF480510022FDF7C6FFFB
:102A6000B2208DF803000DF1030128460122012355
:102A7000FEF724FD20464FF480510122FDF7B6FFFA
:102A80000C270DF103012846012201238DF8037064
:102A9000FEF714FD0DF103012846012201238DF8F4
:102AA0000370FEF70BFD0DF10301284601220123FF
:102AB0008DF80390FEF702FD33270DF10301284640
:102AC000012201238DF80370FEF7F8FC0DF10301DC
:102AD0002846012201238DF80370FEF7EFFC204603
:102AE0004FF480510022FDF781FFB7208DF80300DD
:102AF0000DF10301284601220123FEF7DFFC2046E9
:102B00004FF480510122FDF771FF35208DF803004D
:102B10000DF10301284601220123FEF7CFFC2046D8
:102B20004FF480510022FDF761FFBB208DF80300B8
:102B30000DF10301284601220123FEF7BFFC2046C8
:102B40004FF480510122FDF751FF19208DF8030049
:102B50000DF10301284601220123FEF7AFFC2046B8
:102B60004FF480510022FDF741FF0DF1030128468B
:102B7000012201238DF80360FEF7A0FC20464FF4EC
:102B800080510122FDF732FF2C208DF803000DF15A
:102B90000301284601220123FEF790FC20464FF452
:102BA00080510022FDF722FFC2208DF803000DF1B5
:102BB0000301284601220123FEF780FC20464FF442
:102BC00080510122FDF712FF0DF103012846012279
:102BD00001238DF80380FEF771FC20464FF48051ED
:102BE0000022FDF703FFC3208DF803000DF1030160
:102BF000284601220123FEF761FC20464FF4805154
:102C00000122FDF7F3FE12208DF803000DF1030100
:102C1000284601220123FEF751FC20464FF4805143
:102C20000022FDF7E3FEC4208DF803000DF103013F
:102C3000284601220123FEF741FC20464FF4805133
:102C40000122FDF7D3FE20208DF803000DF10301D2
:102C5000284601220123FEF731FC20464FF4805123
:102C60000022FDF7C3FEC6208DF803000DF103011D
:102C7000284601220123FEF721FC20464FF4805113
:102C80000122FDF7B3FE0F208DF803000DF10301C3
:102C9000284601220123FEF711FC20464FF4805103
:102CA0000022FDF7A3FED0260DF1030128460122E4
:102CB00001238DF80360FEF701FC20464FF480519C
:102CC0000122FDF793FEA4208DF803000DF103010E
:102CD000284601220123FEF7F1FBA1208DF8030015
:102CE0000DF10301284601220123FEF7E7FB2046F0
:102CF0004FF480510022FDF779FEE0208DF80300AB
:102D00000DF10301284601220123FEF7D7FB2046DF
:102D10004FF480510122FDF769FE0DF103012846B1
:102D2000012201238DF80360FEF7C8FB04208DF813
:102D300003000DF10301284601220123FEF7BEFB2B
:102D40000D270DF103012846012201238DF80370A0
:102D5000FEF7B4FB11208DF803000DF103012846A6
:102D600001220123FEF7AAFB4FF013080DF1030126
:102D70002846012201238DF80380FEF79FFB2B20BC
:102D80008DF803000DF10301284601220123FEF70F
:102D900095FB4FF03F090DF1030128460122012365
:102DA0008DF80390FEF78AFB54208DF803000DF197
:102DB0000301284601220123FEF780FB4C208DF8F9
:102DC00003000DF10301284601220123FEF776FBE3
:102DD00018208DF803000DF103012846012201237C
:102DE000FEF76CFB0DF103012846012201238DF84B
:102DF0000370FEF763FB0B208DF803000DF1030158
:102E0000284601220123FEF759FB4FF01F0B0DF15D
:102E100003012846012201238DF803B0FEF74EFB83
:102E20004FF0230A0DF103012846012201238DF8FA
:102E300003A0FEF743FB20464FF480510022FDF72C
:102E4000D5FDE1208DF803000DF103012846012294
:102E50000123FEF733FB20464FF480510122FDF79A
:102E6000C5FD0DF103012846012201238DF8036001
:102E7000FEF724FB04208DF803000DF10301284622
:102E800001220123FEF71AFB0C208DF803000DF13F
:102E90000301284601220123FEF710FB11208DF8C3
:102EA00003000DF10301284601220123FEF706FB72
:102EB0000DF103012846012201238DF80380FEF75E
:102EC000FDFA2C208DF803000DF1030128460122A4
:102ED0000123FEF7F3FA0DF1030128460122012335
:102EE0008DF80390FEF7EAFA44208DF803000DF107
:102EF0000301284601220123FEF7E0FA51208DF854
:102F000003000DF10301284601220123FEF7D6FA42
:102F10002F208DF803000DF1030128460122012323
:102F2000FEF7CCFA0DF103012846012201238DF8AA
:102F300003B0FEF7C3FA0DF1030128460122012375
:102F40008DF803B0FEF7BAFA20208DF803000DF1DA
:102F50000301284601220123FEF7B0FA0DF1030117
:102F60002846012201238DF803A0FEF7A7FA204688
:102F70004FF480510022FDF739FD21208DF8030028
:102F80000DF10301284601220123FEF797FA20469E
:102F90004FF480510122FDF729FD20464FF4805166
:102FA0000022FDF723FD29208DF803000DF1030118
:102FB000284601220123FEF781FA20464FF4805172
:102FC0000122FDF713FD01B0BDE8F08F2DE9F04FB0
:102FD00085B00F9E81464FEA560B30090493154683
:102FE000884601215FEA4B7218BF01EB161000FB07
:102FF00006F409EB560008EB06010138013982B2EC
:103000008BB248464146FFF74DFB002C00F09581FE
:10301000A6F10C00C0F3850040EA8610C2B2052A72
:1030200000F28B810120904010F02B0F00F0858181
:103030001099A5F12000002947F2CE5E45F69A13BB
:1030400045F60E6C46F2FE31C0B2C0F6030EC0F675
:103050000303C0F6030CC0F60301039200F0C48022
:1030600000EB400603EB860701EB061300250293F5
:103070000CEB00130EEB80104E460193009000BF46
:10308000032A05D0012A05D038462AB1009802E06B
:10309000029800E00198284490F800A05FEACA7006
:1030A0000AD0B0B21FFA88F102460B46FFF7FAFACF
:1030B000049800F069F9039A701C80B2A0EB090132
:1030C000594500F087805FEA8A7109D51FFA88F1B7
:1030D00002460B46FFF7E6FA049800F055F9039A0A
:1030E000B01C80B2A0EB0901594573D05FEA4A7168
:1030F00009D51FFA88F102460B46FFF7D3FA049868
:1031000000F042F9039AF01C80B2A0EB0901594586
:1031100060D05FEA0A7109D51FFA88F102460B46B2
:10312000FFF7C0FA049800F02FF9039A301D80B21F
:10313000A0EB090159454DD05FEACA6109D51FFAD4
:1031400088F102460B46FFF7ADFA049800F01CF92F
:10315000039A701D80B2A0EB090159453AD05FEA8D
:103160008A6109D51FFA88F102460B46FFF79AFAE1
:10317000049800F009F9039AB01D80B2A0EB090190
:10318000594527D05FEA4A6109D51FFA88F10246FE
:103190000B46FFF787FA049800F0F6F8039AF01D43
:1031A00080B2A0EB0901594514D04FFA8AF1B1F170
:1031B000FF3F09DC1FFA88F102460B46FFF772FA5F
:1031C000049800F0E1F8039A0836B0B2A0EB0900C9
:1031D000584502D108F101084E460135013C07F17E
:1031E00001077FF44DAFA8E0DDF838A000EB400107
:1031F0000EEB80170026029103EB81010CEB00100F
:103200004FF000090191009072B1012A0ED0DDF853
:103210001080032A38460DD146F2FE30029AC0F6DD
:10322000030000EB021004E0019800E00098DDF8D4
:10323000108030440578E807404608BF504600F04B
:10324000A3F809F10100C0B2B0FBFBF101FB1B00C8
:10325000002869D0A807404658BF504600F094F8AF
:1032600009F10200C0B2B0FBFBF101FB1B0000281A
:103270005AD06807404658BF504600F085F809F11B
:103280000300C0B2B0FBFBF101FB1B0000284BD0D8
:103290002807404658BF504600F076F809F1040070
:1032A000C0B2B0FBFBF101FB1B00E8B3E8064046EF
:1032B00058BF504600F068F809F10500C0B2B0FBF5
:1032C000FBF101FB1B0078B3A806404658BF5046EF
:1032D00000F05AF809F10600C0B2B0FBFBF101FBA7
:1032E0001B0008B36806404658BF504600F04CF833
:1032F00009F10700C0B2B0FBFBF101FB1B0098B164
:1033000068B2002858BFD046404609F1080500F0D1
:103310003BF8E8B2B0FBFBF101FB1B09B9F1000F70
:1033200018BFA94602E000BF4FF00009039A01361A
:10333000013C07F101077FF467AF05B0BDE8F08FEE
:103340002DE9F04F83B09B461378CBB1DDE90C9AA1
:10335000DDF838800D4606464FEA5A07541E00BF76
:10336000B0B2DAB229465B46CDE9009ACDF80880C2
:10337000FFF72CFEA3783E44002B04F10104EFD1AB
:1033800003B0BDE8F08F000080B582B040BAADF860
:10339000060040F2BC50C2F200000DF1060102220C
:1033A0000123FEF78BF802B080BD000080B582B02B
:1033B0000020019043F63000C4F2020001680022B0
:1033C00041F4800101600068002100F48000019058
:1033D00001983A20FDF79AFC3A2002B0BDE88040FF
:1033E000FDF782BC70B586B0002543F63000059528
:1033F0000095C4F20200016840F6000441F00401A7
:1034000001600168C4F2020401F004010091009916
:1034100000950168002241F08001016001684FF4CD
:10342000005601F08001009100990095016841F07B
:1034300001010160016801F001010091009900950E
:10344000016841F00201016000684FF4005100F092
:103450000200009000982046FDF7C8FA0120CDE94F
:10346000020501A9204601960495FDF7E9F906B089
:1034700070BD000080B540F2685045F60041C2F2D0
:103480000000C4F2000141F6802200234FF4804C7A
:10349000C0F2060280E80E00C0E9033CC0E9053333
:1034A000C0E90733FDF7AEFA002808BF80BDBDE8CC
:1034B0008040FCF7BBBF000010B540F2BC5043F2A7
:1034C0000001C2F20000C4F201014FF48272002335
:1034D00080E80E0000F10C014FF0020C4FF0010EDD
:1034E0004FF4007481E808500A21C0E90643C0E99E
:1034F0000833C0E90A31FDF72FFF002808BF10BDCF
:10350000BDE81040FCF792BF80B586B040F2146071
:103510000021C2F200004FF08042632340F2E73CFA
:103520000591CDE90311CDE90011C0E90023C0E9FF
:10353000021C01618161FEF7DDF9002818BFFCF76C
:1035400075FF4FF48050029040F21460C2F2000008
:1035500002A9FEF761FA002818BFFCF767FF40F2E6
:103560001460C2F200006946FEF77AF9002818BF1D
:10357000FCF75CFF06B080BD80B540F25C6041F2B4
:103580000001C2F20000C4F2010100234FF00C0C54
:103590004FF4E13280E80E00C0E90333C0E905C30F
:1035A000C361FEF7C3FB002808BF80BDBDE88040B3
:1035B000FCF73CBFFEE70000FEE70000704700009C
:1035C000806B01684A6822F003024A60416D41F055
:1035D00010014165012180F85110FDF7BBBE0000CC
:1035E000806BFEF715B90000B0B584B0846B05465A
:1035F000FDF702FA29680968C90531D40546206833
:1036000001224168642321F020014160416821F0DA
:103610000201416020460221009500F06FF828B3B6
:10362000606D40F020006065606D40F020006065D6
:10363000A06838B9002002902068C16802918068B3
:10364000029002980020E086012084F85100606D0D
:1036500030B1204604B0BDE8B040FDF77BBE00BFEE
:10366000204604B0BDE8B040FEF7D0B840F2680094
:10367000C2F20000006849F68171C1F25E61A0FBF0
:103680000101480D4FF47A71484303906068B0F52A
:10369000827F09D12046802100226423009500F01A
:1036A0002DF80028BCD1C3E703980028C0D00398A8
:1036B00001380390206880680006B9D50398002877
:1036C000B6D0039801380390206880680006AFD513
:1036D00003980028ACD003980138039020688068D4
:1036E0000006A5D503980028A2D0039801380390BE
:1036F000206880680006D7D49AE700002DE9F043DF
:1037000081B0089C984615460E468146FDF774F92F
:10371000201A00EB0804FDF76FF940F26801C2F2CD
:1037200000010968C1F3CB3161430091D9F8001061
:103730008A683240921BB2FA82F25209AA423DD004
:10374000074618F1010031D0FDF756F9C01BA04221
:1037500038D2009800990028A1F101010091D9F810
:103760000010896808BF044601EA0600801BB0FA11
:1037700080F04009A842E7D120E000BF88683040CF
:10378000801BB0FA80F04009A84217D0886830400A
:10379000801BB0FA80F04009A8420FD08868304002
:1037A000801BB0FA80F04009A84207D088683040FA
:1037B000801BB0FA80F04009A842DFD1002001B0A0
:1037C000BDE8F083D9E900014268B1F5827F22F0BB
:1037D000E00242600BD1D9F80810B1F5004F02D0D9
:1037E000B1F5806F03D1016821F040010160D9F883
:1037F0002810B1F5005F07D1016821F40051016084
:10380000016841F400510160012089F85100002055
:1038100089F85000032001B0BDE8F0837047000034
:10382000FDF7F8B9B0B592B0002443F64000CDE9F9
:103830000A44CDE908440594CDE90344CDE90144A7
:103840000094C4F202000168022541F08051016039
:10385000006800F080500090009847F2000000944B
:10386000C4F20000016841F440410160006800F4C6
:10387000404000900098012006904FF4803007905F
:103880004FF480000D900C200E906020CDE90F05C4
:103890000420119006A80C95FDF784FB10B172B6B8
:1038A000FEE700BF0F20CDE901054FF48050CDE9C0
:1038B000040401A803210394FDF764FA10B172B661
:1038C000FEE700BF12B0B0BD4EF68850CEF2000049
:1038D000016841F4700101607047000040F214601B
:1038E000C2F20000FEF76AB910B540F2FF7E03682D
:1038F000C4F2000E40F2000C7045C4F2010C1DDD54
:1039000040F60002C4F20002904220D060451ED072
:1039100040F60042C4F20002904218D04FF6FF7207
:10392000C4F2000290421CDC704525DCB0F1804FEF
:103930003AD040F20042C4F2000233E0B0F1804FCE
:1039400005D040F20042C4F200029042E6D14A683B
:1039500023F0700313434FF6FF72C4F2000290424B
:10396000E2DD44F2FF32C4F20102904210DC604515
:103970001AD044F2000213E040F60002C4F2000242
:10398000904211D040F60042C4F200020AE000BFAB
:1039900044F60002C4F20102904205D044F2004213
:1039A000C4F20102904203D1CA6823F44073134366
:1039B00023F080024B69D1F800E08C681A4360451F
:1039C0000260C462C0F828E002D10969CCF8301066
:1039D000012141610169C90708BF10BD016921F0DA
:1039E0000101016110BD000010B504460068D4E972
:1039F00002C22369016921F44051114301616269E6
:103A000043EA0C01E3691143C268194349F20C63AC
:103A10009A431143C1604169A26921F4407141F2A6
:103A20000043114340F48062C4F201039A424161B1
:103A300002D1FDF76DFA01E0FDF756FAE16963681E
:103A40001922B1F5004FA0FB020123D15A00DB0F70
:103A5000FCF7BEFB48F21F51C5F2EB11A0FB01239E
:103A60005A094FF69C73C0F6FF7303F1805302FBB3
:103A70000300322303EBC000A0FB01014FF4F870F8
:103A800000EA111000EB0210C1F342110844216852
:103A9000886010BD9A009B0FFCF79AFB48F21F51FB
:103AA000C5F2EB11A0FB01235A094FF69C73C0F637
:103AB000FF7302FB0300322303EB0010A0FB0101A4
:103AC000F02000EA511000EB0210C1F3431108444A
:103AD0002168886010BD0000FEE70000B0B540F22C
:103AE0002414C2F200042046442101F005FB46F6EE
:103AF000FD20C0F600001E21002229F071FA40F2DC
:103B0000C805C2F20005686001202870204601F057
:103B1000C1FA0146686829B129F062FB00202870CB
:103B2000B0BD00BF29F04CFB00202870B0BD0000E4
:103B300070B50346B1F90000B2F90040B1F902C016
:103B4000B2F90250B1F904E0B2F90460A042B1F94F
:103B50000610B2F90620C8BF0446AC451C80C8BF99
:103B60006546B6455D80B8BF764691429E80B8BF37
:103B70000A460020B4424FF00001D8BF012195420F
:103B8000D8BF01200840DA8070BD00002DE9F04365
:103B900081B00C46B0F90070B1F900108F423DDBE6
:103BA000B0F90260B4F902108E4237DBB0F904902C
:103BB000B4F90410894531DCB0F90680B4F9060087
:103BC00080452BDC15466AB3694620462A46ADF887
:103BD0000070ADF8026000F097F8F8B16946204631
:103BE0002A46ADF80090ADF8026000F08DF8A8B15B
:103BF000694620462A46ADF80070ADF8028000F014
:103C000083F858B1694620462A46ADF80090ADF8D1
:103C1000028000F079F801B0BDE8F083002001B027
:103C2000BDE8F083012001B0BDE8F083B0F90020C9
:103C3000B1F904309A4213DCB0F90420B1F9003034
:103C40009A420DDBB0F90220B1F906309A4207DC46
:103C5000B0F90600B1F902108842A4BF01207047F4
:103C6000002070472DE9F04381B00C46B0F90460A4
:103C7000B1F900108E4211DBB0F90670B4F90210F0
:103C80008F420BDBB0F90080B4F90410884505DCE5
:103C9000B0F90290B4F90600814503DD012001B0BE
:103CA000BDE8F0831546EAB1694620462A46ADF8DC
:103CB0000080ADF8029000F027F898B969462046D8
:103CC0002A46ADF80060ADF8029000F01DF848B942
:103CD000694620462A46ADF80080ADF8027000F033
:103CE00013F818B1002001B0BDE8F0836946204602
:103CF0002A46ADF80060ADF8027000F005F880F0DB
:103D0000010001B0BDE8F0832DE9F041B1F90030C8
:103D1000B0F90040A3420DDBB0F904E0734509DCC3
:103D2000B1F902C0B0F902108C4503DBB0F90650BE
:103D3000AC4503DD0020BDE8F08100BF012A54DB63
:103D4000AEEB0400013086B200EBD63006B2681A42
:103D5000013087B200EBD73007B24FEA660878101F
:103D6000B8EB670FB8BF70109042A8BF1046021999
:103D700017B24218BB4216B2D8BFB44516DD2A1A94
:103D8000BB4212B22CDC94452ADB391809B2091B5C
:103D900001EBD1714F1004EB610602EB6101401A97
:103DA0009B1B604407FB07F10FE000BF384400B2E3
:103DB000001B00EBD070421004EB600701EB6000C9
:103DC000DB1BACEB000002FB02F110FB00F013FB6D
:103DD000030200208A4298BF0120BDE8F08100BFA5
:103DE000AEEB000424B2A34202DA0120BDE8F08168
:103DF000944517DAB445F8DC201A02B2AEEB0202A1
:103E000002EBD27201EB620100EB6200ACEB01014C
:103E10005710181A11FB01F107FB07F210FB0011F4
:103E200014E000BF211A0CB2AEEB040707EBD77702
:103E300002EB6702801A01EB670160447E10591A99
:103E400010FB00F006FB06F211FB0101002091427D
:103E500098BF0120BDE8F08170B5B1F90030B2F92A
:103E60000040B1F902C0B2F90250B1F904E0B2F970
:103E70000460A342B1F90610B2F90620B8BF1C468F
:103E8000AC450480B8BF6546B6454580C8BF764698
:103E900086809142C8BF0A46C28070BD2DE9F04FAE
:103EA00087B0054629F024F840F2B80A04460020FD
:103EB000C2F2000A04904DB1E868CAF80000284632
:103EC00029F07EF9DAF8000004E000BF0FF08EF868
:103ED000CAF80000006925F06BF8DAF800104869AC
:103EE00018B125F065F8DAF80010C86925F060F817
:103EF000DAF80000006A25F05BF8DAF800100869CB
:103F000000287BD0B1F85001002800F07D8000250A
:103F10004FF001090DF114080127019405E000BFDD
:103F2000B1F850710135BD424AD2002FF8D048197E
:103F300090F830010028F3D1002404E0B1F85001DA
:103F400001348442ECD2AC42F8D0081990F8300128
:103F50000028F3D1303101EBC50001EBC401FFF7BC
:103F600065FEDAF800100028E8D001F1300000EB1F
:103F7000C50100EBC4024046FFF76EFF40460BF060
:103F8000CFFADAF80010064601EBC50030300BF02E
:103F9000C7FADAF80010074601EBC40030300BF026
:103FA000BFFA3844DAF800108642C7D2059A069B59
:103FB00001EBC50002634363081980F83091BDE747
:103FC0000020002FCAF8040000F09281012F1FDBAF
:103FD000C81990F82F21EAB1022F19D390F82E2199
:103FE000D2B1032F14D390F82D21BAB1042F0FD3DF
:103FF00090F82C01043F0028E8D110E00020A1F83F
:10400000500107B0BDE8F08F0020CAF804006FE14E
:10401000002704E0013F02E0023F00E0033F0868A0
:10402000426B1AB19047DAF800100868C0688269DC
:1040300022F0010282610868C068826922F00202EF
:104040008261B1F8502191F82800002A40F0040262
:1040500081F8282000F04881002412E0029CDAF860
:10406000000000EBC40030300BF05AFADAE900121D
:104070001044CAF80400B1F850010134844280F0C1
:104080000B81081990F830010028F4D1BC4205D109
:104090000868C068826942F0010282610868C068ED
:1040A000826922F0020282610868C268C66B926867
:1040B0003260007C01EBC402800702F1300523D09E
:1040C0000846AB460EF0ACFFDAF80010A0F101098B
:1040D00008460EF0FBFF013805B20FFA89F340469F
:1040E0000021002200950BF055FADAF80000C6F81E
:1040F00004800068D0E903018269890714D48169CA
:1041000062F341015A4612E00294B5F80090B5F806
:1041100004B0B5F80280B5F9064008460EF0D6FFA7
:1041200084420BDAEB880EE042F0020142468161E4
:104130003046B2602AF0B4FA91E700BFDAF8000026
:104140000EF0C4FF431EDAF80010A4EB0802096861
:10415000ABEB0900CC680130E46800B20132B4FB7B
:10416000F0F089690FFA82F84045B8BF804661B324
:10417000AB46002044460DF1140903930590ADF8B9
:10418000180000BF651EDAF80000ADF81A5000688C
:10419000494682699047BDF81610BDF91A00411AC8
:1041A000013109B2884507DA2CB2002CEADC039B06
:1041B0004FF000085D4608E0039B21B25D460129EF
:1041C000ACBF00F101084FF00008B5F902001CB2C5
:1041D00008EB000BABF10101A14280B226DD4FF0EC
:1041E00000091FFA89F19AB28A420DF114083FF4CE
:1041F00035AF2988ADF81410A988ADF81600DAF8A3
:104200000000ADF81810ADF81A30C6F80480C6F8F2
:1042100008800068C06881683160816941F00201EE
:10422000816130462AF03CFA18E700BFCDF80C80D7
:104230000CE000BF30462AF033FA0399584601FAE1
:104240008BFBABF10101A1424346CADC2A880FFA7D
:1042500081F9ADF81420AA88ADF81600ADF8182041
:1042600005AADAF80000ADF81A107260B2600068B2
:104270004C45C0689AB2816898463160BCBFADF8C1
:104280001A3099461FFA89F18A42D3D1816941F0E7
:1042900002018161CEE700BF91F8282002F0FB0205
:1042A00081F8282020B301F130004FF480711EF016
:1042B00047FDDAF80000202100F598701EF040FD5F
:1042C000DAF800000021A0F85011019828F0F8FD5C
:1042D0000490DAF800000068436A4BB10499DAF8F8
:1042E0000420984704E000BF00F0FB0081F828009C
:1042F0001DF0E4FE00F04AF800F004F807B0BDE855
:10430000F08F000010B540F2D024C2F20004206803
:10431000002818BF1EF0AEF820461C211EF010FD2C
:10432000E069002818BF1EF0A5F804F11C001C214C
:104330001EF006FDA06B002818BF1EF09BF804F1CC
:1043400038001C211EF0FCFC606D002818BF1EF018
:1043500091F804F154001C21BDE810401EF0F0BC9F
:1043600040F20451C2F20001096804E00A7E42F002
:1043700001020A764969002908BF70474A688242EB
:10438000F4D00A688242F5D1F0E7000070470000DF
:1043900040F21810C2F20000042100F0ADBE00008F
:1043A00040F23010C2F20000202100F0A5BE000053
:1043B0002DE9F04F85B00E9E1D46002B834608BFA9
:1043C000B6F5807F68D0DDF83C800023019301A81A
:1043D000ADF80810CDF80A30ADF80E20ADF8101089
:1043E000ADF81220294632464346071D00F1080960
:1043F00000F10C0A24F032FE384629463246434684
:1044000024F02CFE484629463246434624F026FE38
:10441000504629463246434624F020FEBDF904109A
:10442000BDF90870BDF90C60BDF91040B9423846BD
:10443000BDF906C0BDF90A30B8BF0846A6422546F8
:10444000B8BF3546A842B8BF0546B942C8BF0F46F7
:10445000A642C8BF3446A742C8BF3C46A11CBDF90E
:104460000E60BDF912409C451A46A5F10200B8BF86
:104470006246A6422546B8BF3546AA42B8BF154691
:104480009C45C8BF6346A642C8BF3446AF1EA34280
:10449000C8BF1C46A21C03E00139013A00200027D6
:1044A000ABF80000ABF80270ABF80410ABF80620D4
:1044B00005B0BDE8F08F0000F0B581B016460C469F
:1044C000074628F015FDA2B240F2C034C2F2000443
:1044D00005462046394633461AF0C2FA30B1E06943
:1044E0000021A16270B1204601B0F0BD20462C2110
:1044F0001EF026FC4FF00040A0620024204601B0D0
:10450000F0BD00BF284628F0DBFC012898BF012041
:10451000E061204601B0F0BD10B540F23C14C2F29B
:1045200000042046142100F0E7FD204600F0ECFDD9
:10453000B0B1142104461EF003FC4DF63170C0F6F4
:1045400001004EF221014EF271324DF6F963C0F6D0
:104550000101C0F60102C0F601030FC410BD00BF87
:10456000FEE70000B0B50C460546084610211EF0D7
:10457000E7FB28680178042908D0022908D001291E
:1045800008D1A98A2180E98A618003E00A2100E03C
:10459000E96861604268002A08BFB0BD2146BDE8F5
:1045A000B04010472DE9F04F8DB00146804631F8FC
:1045B000140F049120B9B8F81600002800F03A83CF
:1045C000D8F82C90B9F1000F46D04FF48074002633
:1045D0004D4600BF284600216D2221F0F9FD06441A
:1045E000284600216C2221F0F3FD01B2C90D50FADA
:1045F00081F000B200124443284621F045F80546F8
:104600000028E7D1300440F0A381A0B2B0F5807F4C
:1046100040F09E8198F8400000F00F00032840F021
:10462000AC81484621F062F90546484621F0DCF8A5
:1046300004990246B1F90010032748462B4600971B
:1046400006F010FE07460026484621F09BF8C107F9
:1046500000F0AA81AEE100BF1AF082FF0068B8F84E
:104660001410B8F81820037E5018A8F81800B8F8ED
:104670001600B8F81A10D8F824700844002FA8F8CB
:104680001A0000F0D782584206904FF0000A00202E
:104690004FF0000B0024039309900590CDF808809B
:1046A00009E000BF4FF0000A384620F0EDFF074652
:1046B000002800F0DB81A1464FF4807400263D46BF
:1046C000CDF830A0284600216D2221F081FD06445E
:1046D000284600216C2221F07BFD00B260430412C9
:1046E000284620F0D1FF05460028EBD1D8F8180065
:1046F00031040B9008BFB4F5807F0FD04FF48031A8
:10470000704291FBF4F201B20BA80CAB24F0A6FCB2
:10471000BDF82C00BDF82E1001E000BF010C02B264
:1047200080EAE230A0EBE2300AB281EAE231A1EBAA
:10473000E23180B289B288424FF0000088BF012088
:1047400080F001014C4641EA09044BEA000B38466F
:10475000102121F061FF002800F09080DDF824A0F6
:104760003846CDF81CB021F00DF8804600F004006A
:1047700004EA900608F0080004EAD00008903846E1
:1047800021F036F98346384620F09AFF0546384630
:1047900021F02AF88146384621F0A8F8BBF1000F35
:1047A000D8BF012DC0F28680BDF92E10DDF80CE0D7
:1047B00000227145A8BF0122069B324099424FF06A
:1047C0000001D8BF0121089B19401143059918BF6A
:1047D0000C21059118BFBA46B9F1000FD8BF0028C7
:1047E0006FDD079A08F0020108EA020302EA510CA1
:1047F000BDF92C200194B9F1000F4FF000044FF0E7
:1048000000010996C8BF01247245A8BF0121069E78
:104810001940B2424FF00006D8BF012606EA0C0646
:104820003143059E04EA03011CBF0326BA46012951
:10483000059602D1724580F20D8100284FF00001EB
:10484000C8BF0121002D4FF00000C8BF0120BBF1FF
:10485000000F4FF0000301EA0C01C8BF0123089CC0
:104860000129099900EA040001EA03013AD1069BF3
:10487000DDE901489A4237DCEEE000BF38464FF4EC
:10488000807121F0C9FE002804BF8BF001005FEAAF
:10489000C07000F0EB8038464FF4007121F0BCFE90
:1048A00000287FF401AF84F00100C0077FF4FCAE64
:1048B000DCE000BFDDF80CE0B9F1000FD8BF002844
:1048C0008FDC002D4FF000004FF00001C8BF012029
:1048D000BBF1000FC8BF0121089ADDF80880314004
:1048E000104001E0DDE90148BDF92E2000237245AA
:1048F000A8BF0123069EB2424FF00002D8BF01229A
:104900001942CDF824A008BF10EA020040F09C80B4
:1049100038464FF4807121F07FFEDDF81CB000288E
:1049200004BF8BF001005FEAC07000F09F80384642
:104930004FF4007121F070FE00287FF4B3AE84F0D4
:104940000100C0074FF0000A7FF4AEAE8EE000BF5A
:1049500020B24FF4803292FBF0F0002271420A92B2
:1049600002B2049809B20AAB24F078FB98F8400030
:1049700000F00F0003283FF454AE484621F038F809
:104980000546484620F09CFEB8F9161003460C2751
:1049900048462A46009706F065FC0646002748462A
:1049A00020F0F0FEC10705D1002F03DD00274107ED
:1049B00006D509E0810758BF27EAE777410703D406
:1049C000002E01DD002603E0000758BF26EAE67648
:1049D000B8F91A10B8F9363001FA86F5B8F91800A6
:1049E000B8F934205C1A9D42B8BF2646B8F93A306F
:1049F000B8BF01FA84F59D42C8BF5E1A00FA87F17C
:104A0000131A9142B8BF1F46B8F93820B8BF00FA50
:104A100083F19142C8BF171A39B232B2484600F04A
:104A200001FC98F80100800700F10481B8F8180033
:104A3000B8F81A103844A8F818008819A8F81A000D
:104A40000DB0BDE8F08F00BF0798C00704D10C205F
:104A500005E000BFDDF80880CDF824A0032098F819
:104A6000401001F0F001084488F84000DDF824907F
:104A7000B9F1000F00F0DE8098F84000059900F0D1
:104A8000F00001F00F01084488F840000020C8F849
:104A90001800484680214EF20105C8F82C9021F0FC
:104AA000BBFDD8B1484620F09BFF032822D0022846
:104AB0003AD001284AD1B9F8160041F6FF72013008
:104AC00001B24846002306F0F7FDA8F83600B9F811
:104AD000160029B2013802B233E000BF29B208F152
:104AE000340041F6FF770A4641F6FF7300970AF05B
:104AF00051FD79E0B9F81600B9F81A100023091A27
:104B000001318AB201EBD23109B200EB6104601CC1
:104B100001B2484641F6FF7206F0CEFDA8F8360015
:104B2000601E02B20CE000BFB9F91A10484641F607
:104B3000FF72002306F0C0FDA8F83600B9F91A206C
:104B400029B24846002306F0B7FD03E041F6FF70A6
:104B5000A8F83650A8F83A00484620F039FF032854
:104B600010D0022828D0012838D1B9F914104846AD
:104B700041F6FF72002306F0FFFCA8F83400B9F9F3
:104B8000142025E0B9F81400B9F818100023091A08
:104B900001318AB201EBD23109B200EB6104601C31
:104BA00001B2484641F6FF7206F0E6FCA8F8340070
:104BB000601E02B20CE000BFB9F91810484641F679
:104BC000FF72002306F0D8FCA8F83400B9F91820C9
:104BD00029B24846002306F0CFFC03E041F6FF70FF
:104BE000A8F83450A8F83800B8F834000921002893
:104BF00008BFA8F83450B8F838000022002804BFD5
:104C000041F6FF70A8F83800B8F83600002808BF51
:104C1000A8F83650B8F83A00002804BF41F6FF70F3
:104C2000A8F83A00484618F055F898F801008007AF
:104C30007FF5CBAC0DB0BDE8F08F00002DE9F0475B
:104C400082B0C56A002D00F03E81044690F8400015
:104C5000000700F038811AF083FC8246006840218A
:104C6000477E284621F0D8FC002804BF0020E061E0
:104C7000284620F0ADFE8046284620F0B1FE94F88C
:104C80004010814601F00F01032945D00C2940F066
:104C900018810020B9F1000FA08300F07F80E68B1F
:104CA0001AF05EFC002E4FF0000C00F0C18000688E
:104CB00048F21F52407E0027C0F16400C5F2EB129B
:104CC00010FB06F353FB02F3591101EBD3731904E4
:104CD000374400F0AE8010FB03F151FB02F14E119E
:104CE00006EBD17631041F4400F0A38010FB06F1DF
:104CF00051FB02F14B1103EBD1731904374400F05F
:104D0000988010FB03F151FB02F14E1106EBD176B6
:104D100031041F44D4D18CE0A68B0020B8F1000FE1
:104D2000E08361D01AF01CFC002E4FF0000C00F064
:104D3000A380006848F21F52407E0027C0F1640043
:104D4000C5F2EB1210FB06F353FB02F3591101EB12
:104D5000D3731904374400F0908010FB03F151FB2A
:104D600002F14E1106EBD17631041F4400F085802C
:104D700010FB06F151FB02F14B1103EBD173190447
:104D800037447AD010FB03F151FB02F14E1106EBD0
:104D9000D17631041F44D5D16FE000BFB4F91E00B5
:104DA000C7F16401484348F21F51C5F2EB1150FBB3
:104DB00001F0410901EBD070E083284620F080FC2F
:104DC0000746284620F014FEB4F91E1002460C26B1
:104DD00028463B46009606F045FA0246E083284600
:104DE000002100236BE000BF30B2C7F164014843EB
:104DF00048F21F51C5F2EB1150FB01F0410901EBE4
:104E0000D070A083284620F0EFFC0746284620F00B
:104E10006DFDB4F91C100346032628463A46009659
:104E200006F020FA0146A08328460022002346E02F
:104E30000027B4F91A00B4F93610B4F93A2000FA90
:104E400087F3A4F81EC00E1A8B42BCBF374600FA87
:104E500086F34EF201019342C8BF171A3BB2CFF658
:104E6000FF71284641F6FF7206F026FC384402B274
:104E70002846002122E000BF0027B4F91800B4F949
:104E80003410B4F9382000FA87F3A4F81CC00E1AC5
:104E90008B42BCBF374600FA86F34EF201019342C3
:104EA000C8BF171A3BB2CFF6FF71284641F6FF7212
:104EB00006F062FB384401B228460022012323F0A9
:104EC00083FAA08B10B102B0BDE8F087E08B002818
:104ED000F9D1B9F1000F16D1284620F089FD074617
:104EE000284620F0EDFB002FD8BF01280BDB002F58
:104EF00003D4B0F1FF3F06DC47423AB22846002116
:104F0000012323F061FAB8F1000F16D1284620F0F2
:104F10006BFC0746284620F0E9FC002FD8BF01288B
:104F20000BDB002F03D4B0F1FF3F06DC474239B260
:104F300028460022012323F047FA28460A21524638
:104F400017F0C8FE60788007BDD494F8400000F0E8
:104F5000F00084F840000020E06202B0BDE8F08775
:104F6000F0B585B004460D4620B90EF03FF8044672
:104F700000285DD020460EF0C1F8002858D094F8E3
:104F80002800400754D40020C5B3029020460EF0FC
:104F900047F80138ADF80C0020460EF097F80138BC
:104FA000ADF80E00684602AA2946FEF7C1FD0028AA
:104FB0003ED02068017C890724D482690AB1694601
:104FC0009047B4F8500128B304F1300500276E462D
:104FD000304629460022FEF7D9FD48BBB4F85001FF
:104FE0000137874205F10805F2D31F2813D9DDE9FF
:104FF000020161630121206314E000BFA4F85001A5
:1050000005B0F0BDDDE90201C4E90C0160680121D1
:1050100009E000BF0020009A019B04EBC0010A6375
:105020004B63411C6068A4F8501108B128F0D8F80F
:1050300005B0F0BDF0B581B010B345680446FDB1D0
:10504000002707E0002BA36014BF9F5067601DF08E
:1050500011FAADB1D4E9001328460A1DAD588342B8
:105060000AD0A66843588642ECD0002B18BF9D504A
:1050700055B16B50EBE700BF65601DB16F50E6E7BF
:1050800001B0F0BD0021A16001B0BDE8F0401DF00D
:10509000F1B90000002814BF4068002070470000EC
:1050A000D0B14268C2B10068011D03205258002AE5
:1050B00004BF023870475258002A04BF01387047B5
:1050C0005258002A08BF704752580430002A04BFC3
:1050D00003387047EAE700BF0020704700680844C3
:1050E000406870470068085870470000002814BFE7
:1050F00080680020704700000331002221F0030186
:10510000C0E900128260704710B50446006808309C
:105110001CF0B6FF002808BF10BD216800224250D5
:10512000626843185A606268002A18BF5050A1682C
:105130006060002908BFA06010BD000010B50446E3
:10514000006808301CF09CFF002808BF10BD2268D2
:105150000023111D4350A3688350A268002A18BF82
:1051600050506168A060002908BF606010BD000059
:1051700030B1416809B9806810B10020704700BFA4
:105180000120704780B5002808BF80BD42688A4270
:1051900014D0D0F800E0826851F80E308A4219D05D
:1051A0000EF1040C51F80C00002B18BF43F80C0052
:1051B000002818BF40F80E3080BD00BF02681144BF
:1051C00049680029416007BF0021816000208850A4
:1051D00080BD00BF0021002B836018BF0EEB0300D1
:1051E000416080BD10B50446006804E000680028F6
:1051F00008BF10BD20608268002AF7D02146904782
:105200002068F3E78068002814BFC08A002000B23D
:1052100070470000806800280EBF0020807E800953
:105220007047000070B50E4611431BD0154604466A
:105230001FF008F9A0680123018A428A31440182E3
:1052400051194182204631462A4621F007FE204668
:105250000B21002217F03EFD012818BF70BD20462B
:1052600021F048FD012070BDF0B581B01446C8B1F1
:10527000612206460F4620F0ABFF98B10546006854
:1052800080B130463946622220F0A2FF010609D0E3
:105290002B68A1B2C2B228469847C0EA040001B008
:1052A000F0BD00BF2046C0EA040001B0F0BD000020
:1052B0002DE9F04F91B00446408CDDF868B040F025
:1052C0000400608422841646BBF8082020461F464E
:1052D0008A4620F07DFF2784BBF80820054620463B
:1052E000514620F075FF618C814621F004004D4548
:1052F000608403D102D111B0BDE8F08F2684BBF8E1
:1053000008202046514620F063FF80462046514643
:10531000278407F065FB0068BBF80810424625F0BB
:105320005FFFBBF808000B2827D147F6FF75A9459A
:1053300018BFA84521D1204621F0FCF881B200EB2E
:10534000D13000B24610204620F018F981B200EBAF
:10535000D13000B24010A84506F1010100F1010072
:1053600003D180468142B8BF884647F6FF72914517
:1053700003D18142B8BF0846814640F24810C2F2CC
:105380000000FFF7C1FEC8B3C0E903890460064608
:10539000BBF808006C46B0802046C6F808A009F0AB
:1053A00021FB45F2F500C0F60300019045F22D30D7
:1053B000C0F60300029045F26D20C0F60300039092
:1053C0000020CDE90800FF200A90BBF80000BBF8E0
:1053D00002100B9048420C90DBE903019DF842203B
:1053E000079002F0FE008DF84200204600960691DC
:1053F00009F078FB11B0BDE8F08F00BFFEE70000B8
:1054000040F24810C2F200001421FFF775BE000000
:105410002DE9F04F81B00446408C10F4FC7F00F081
:105420002B816FEA01086FEA020900276D464FF0F1
:10543000020B4FF0000A08E00227608C0AF1010A13
:10544000C0F3C5018A4580F01281E16801EBCA0210
:1054500052689301F2D492B212EA080302EA0902F6
:10546000B2FA82F24FEA521218BF01235340E5D13B
:1054700051F83A60102130462A4625F01FFC0028DA
:1054800040F0F480304611212A4625F017FC002810
:1054900040F0EC80304612212A4625F00FFC00280F
:1054A00040F0E480304613212A4625F007FC00280E
:1054B00040F0DC80304615212A4625F0FFFB00280D
:1054C00040F0D480304614212A4625F0F7FB00280E
:1054D00040F0CC8030460A212A4625F0EFFB002818
:1054E00040F0C48030466A212A4625F0E7FB0028B8
:1054F00040F0BC8030466B212A4625F0DFFB0028B7
:1055000040F0B480304601212A4625F0D7FB002820
:1055100040F0AC80304604212A4625F0CFFB00281D
:1055200040F0A480304602212A4625F0C7FB00281F
:1055300040F09C80304603212A4625F0BFFB00281E
:1055400040F09480304605212A4625F0B7FB00281C
:1055500040F08C80304606212A4625F0AFFB00281B
:1055600040F08480304632212A4625F0A7FB0028EF
:105570007CD130466D212A4625F0A0FB002875D14C
:1055800030466C212A4625F099FB00286ED1304622
:1055900068212A4625F092FB00287FF44DAF304663
:1055A00069212A4625F08AFB00287FF445AF304662
:1055B0006D212A4625F082FB00287FF43DAF30465E
:1055C0006C212A4625F07AFB00287FF435AF30465F
:1055D00037212A4625F072FB00287FF42DAF304694
:1055E00038212A4625F06AFB00287FF425AF304693
:1055F00035212A4625F062FB00287FF41DAF304696
:1056000040212A4625F05AFB00287FF415AF30468A
:1056100045212A4625F052FB00287FF40DAF304685
:1056200041212A4625F04AFB00287FF405AF304689
:1056300042212A4625F042FB00287FF4FDAE304689
:1056400043212A4625F03AFB00287FF4F5AE304688
:1056500049212A4625F032FBFFB2012F4FF001010C
:1056600098BF0F46002818BF5F46E6E60327F8B24A
:1056700001B0BDE8F08F00BF0027F8B201B0BDE86F
:10568000F08F000040F2B800C2F2000000687047DE
:1056900070470000C0F30410072828BF0720704798
:1056A0004FF6FF71884204BF1F20704710B90020D9
:1056B000704700BF6F2805D845F62A11C0F60301D0
:1056C000085C704740F2F001C2F20001096800294D
:1056D000EDD040F2EC32C2F200027038126880B2B3
:1056E000824284BF085C7047E1E7000080B540F269
:1056F000F400C2F200001821FFF7FEFC40F2601037
:10570000C2F200000121417080BD0000002808BFE6
:1057100070472DE9F041164604460D46FAF79BFD09
:1057200040F26C08C2F20008D8F800200746204674
:1057300029469047D8F80020054620443146904736
:10574000391A8D4202D9BDE8F0417047204400BFAC
:10575000425D6B1C8B426255F5D843195F78AE1CD5
:1057600062198E425770EED89F78EE1C8E42977069
:10577000E9D8DB7804358D42D370E9D9E3E700003E
:105780002DE9F04140F20808C2F200081446D8F8AA
:1057900004200F4619461D4606469047386048B11A
:1057A0002868D8F804203044002190472060BDE8E4
:1057B000F08100BF00202060BDE8F0812DE9F04FAE
:1057C0008DB0169C8246002C1E4691460D461CBF8D
:1057D00000202080BAF1000F36D0002D4FF00000DD
:1057E00000F05E829AF80010002900F059821798A4
:1057F00010F0060F2CD00020012242F2014301E0FC
:10580000397904300D2904D802FA01F71F4240F01B
:1058100016810AEB000779780D2904D802FA01F6FF
:105820001E4240F00981B9780D2904D802FA01F628
:105830001E4240F00381F9780D29E1D802FA01F601
:105840001E42DDD00330FAE000200DB0BDE8F08F3D
:105850000021012E0A91C0F21182C007CDE908593A
:1058600040F0FA8051464FF0000B0027CDF804A01D
:1058700040F20800C2F20000426800200C9007913C
:1058800008460CA9904704461AF807000C9900280E
:105890000B9100F07F8019FA86F005900798069723
:1058A000CDE903B600224FF0FF3500274FF0000B83
:1058B0004FF000090FE000BF6A1C324608BF0A46DD
:1058C000DDE90B1907980C9110F809100137002930
:1058D000444600F0628040F20801C2F20001164620
:1058E0004A680BA9AA469047804608982146424636
:1058F00017F062FB01B2834409980029C8BF8344B2
:1059000005980FFA8BF188424D46A8BF4FF0FF353E
:105910001AF1010218BF55460A2C00F033800D2CF5
:1059200000F03080A4F59C4245F2A6139A42C0F0E4
:105930002980A4F120023F2ABED8DFE802F023210B
:105940002121212121212121212123232321212141
:105950002121212121212121232321212121212133
:105960002121212121212121212121212121212127
:10597000212121212121212121212121212300BF98
:105980009AE700BFB9F1000F06D16A1C10D10025BB
:105990000A4611E0002224E03246691C0BD0069F23
:1059A000DDF804A0DDF82490DDE903B6D7B17BE192
:1059B0003246691CF3D14D46DDF804A0DDF8249091
:1059C000049E5FB10D2C2FD1DDF80CB0069FB8F10D
:1059D0000A0F08BF0C9D934445B947E1DDF80CB0B0
:1059E000069F0C9D002D934400F040819AF8001012
:1059F0002F440A290A9700F039810D2900F03681D9
:105A00001AF807000A2800F02F810D2800F02C81D9
:105A1000002800F02B81B01A06B2002E0AEB070115
:105A20003FF726AF22E100BFDDF80CB0069F002D46
:105A30009344DBD11AE100BF013000E002300029BD
:105A400018BF0130002C00F02B814FF6FF71218030
:105A50000DB0BDE8F08F00BF54464FF0000B00259D
:105A6000002700BF40F20800C2F200004268002098
:105A70000C9020460CA9904780461AF807000C9914
:105A8000002806970B9100F0A18019FA86F0029089
:105A90000020CDE903B607904FF0FF304FF0000B28
:105AA0004FF000090027464605900AE00125DDE990
:105AB0000B070BF1010B0C90E05D4646002800F04F
:105AC000798040F20800C2F20000426820460BA92B
:105AD0009047232E804605D1002DE7D0022D09D115
