:020000040800F2
:10000000E0E70020AD010008E9310008D91D000833
:10001000E53100082503000805370008000000004E
:100020000000000000000000000000004D34000847
:100030001904000800000000ED31000851340008E8
:10004000C7010008C7010008C7010008C701000870
:10005000C7010008C70100081D040008C701000807
:10006000C7010008C7010008C7010008C701000850
:10007000C7010008C7010008C7010008C701000840
:10008000C7010008C7010008C70100080000000000
:10009000000000000000000000000000C701000890
:1000A000C7010008C7010008C7010008C701000810
:1000B00011350008C7010008C7010008C701000882
:1000C000C7010008C7010008C7010008C7010008F0
:1000D000C7010008C7010008C701000800000000B0
:1000E000C7010008C7010008C701000800000000A0
:1000F000000000000000000000000000C701000830
:1001000000000000C7010008C7010008C70100087F
:1001100000000000000000000000000000000000DF
:10012000C7010008C70100080D040008C701000846
:10013000C7010008000000000000000000000000EF
:10014000000000000000000000000000C7010008DF
:10015000C7010008C7010008C7010008C70100085F
:10016000C7010008C70100080000000000000000EF
:10017000000000000000000000000000000000007F
:1001800000000000C701000800000000000000009F
:10019000C7010008C7010008DFF80CD000F0AAF87A
:1001A00000480047EDD30208E0E7002006488047FA
:1001B00006480047FEE7FEE7FEE7FEE7FEE7FEE74C
:1001C000FEE7FEE7FEE7FEE7FD34000899010008C0
:1001D0002DE9F05F0546002092469B46884606467C
:1001E000814640241BE0284641464746224600F00F
:1001F00071F853465A46C01A914110D31146184619
:10020000224600F058F82D1A67EB01084F462246A7
:100210000120002100F04FF817EB00094E41201E8D
:10022000A4F10104DFDC484631462A464346BDE8D6
:10023000F09F40EA01039B0703D009E008C9121FA1
:1002400008C0042AFAD203E011F8013B00F8013B90
:10025000521EF9D27047D2B201E000F8012B491EBC
:10026000FBD270470022F6E710B513460A46044653
:100270001946FFF7F0FF204610BD421C10F8011B85
:100280000029FBD1801A704710B5002200E0521CF3
:10029000835C8C5CA34201D1002BF8D1D8B2E1B2CF
:1002A000401A10BD034611F8012B00F8012B002A5B
:1002B000F9D118467047202A04DB203A00FA02F1EF
:1002C000002070479140C2F1200320FA03F3194344
:1002D00090407047202A04DB203A21FA02F00021E6
:1002E000704721FA02F3D040C2F120029140084346
:1002F000194670471CB50948009009480190054609
:10030000009C06E0E06840F0010394E8070098478D
:100310001034AC42F6D3FFF743FF0000B87803086F
:10032000D8780308FEE7000040F25800C2F200004F
:100330001521022202F092B880B582B040F2580036
:100340000DF1040CC2F20000152103220423CDF8A4
:1003500000C001F0C1FF9DF804009DF805109DF854
:1003600006209DF8073000F00F0041EA002002F05F
:100370000F0103F10F0242EA012140F2A42240F2F0
:100380001713C0F1EF00C2F20002591AC2E90001CE
:1003900002B080BD10B586B000200590CDE9030005
:1003A000CDE90100009043F63000C4F2020001687C
:1003B00040F2004441F0020101600068C4F202040E
:1003C00000F00200009000984FF48070019001202E
:1003D000CDE902000320049001A9204600F01AFA9A
:1003E00020464FF48071012200F0EAFA40F25804EE
:1003F000C2F20004204601F0F1FC20461521F9224A
:10040000052302F0BFF806B010BD000040F2E44042
:10041000C2F2000000F00AB870470000012000F0AE
:10042000EDB9000072B600BFFEE70000F0B581B084
:100430000021009140F26401C2F200010B68D0E992
:10044000166148F2B51537680822C1F64E358A4064
:100450003A42A3FB05350CD003681C68640708D535
:100460001C6824F004041C60B260426D42F001027A
:10047000426501228A403A4208D003685B691B0644
:1004800004D5B260426D42F00202426504228A4005
:100490003A4208D003681B689B0704D5B260426DDE
:1004A00042F00402426510228A403A4219D00168A3
:1004B0000B681B0715D5B2600B680A685B0309D48B
:1004C000D20509D40A6822F008020A60016C29B931
:1004D00007E000BF110341D4016C11B10446884705
:1004E0002046C26D202101FA02F33B4243D001684D
:1004F0000F68FF063FD5B36090F835700B68052F85
:100500001CD123F016030B604B6923F080034B6171
:10051000036C0BB9836C1BB10B6823F008030B60F1
:100520003F219140B160012180F83510016D00221A
:10053000002980F8342054D158E000BF0A685B03DA
:1005400010D4D20512D40A6822F010020A600121E8
:1005500080F83510002180F8341007E0816C002904
:10056000BCD1BEE7110301D4416C00E0C16B11B1F5
:10057000044688472046416DC1B3416DC9072ED05E
:10058000052180F835100168AA0A0B6823F00103E1
:100590000B60009B0133934200931AD80B68DB0772
:1005A00017D0009B01339342009312D80B68DB07EE
:1005B0000FD0009B0133934200930AD80B68DB07EE
:1005C00007D0009B01339342009302D80B68DB07EE
:1005D000DFD1012180F83510002180F83410C16C82
:1005E00021B101B0BDE8F040084700BF01B0F0BD47
:1005F0002DE9F041044600F0E9F9ECB1054602208E
:1006000084F835000020216884F83400086820F060
:100610000100086021680868C00711D000F0D6F911
:10062000401B0528F6D9032520230320636584F8A1
:100630003550BDE8F08100BF0120BDE8F08100BF6A
:10064000086848F23F02CFF21002D4E9013500EA0F
:10065000020C04F10C0898E8C10143EA0C032B4397
:100660001843D4E9072E304338431043626A40EA06
:100670000E00042A40EA08031CD1206BD4E90A2E9C
:1006800040EA0E00184308604869BEF1000F20F0F0
:10069000030040EA020040F0040C11D0B8F5005FFE
:1006A00036D0B8F1000F45D1022A46D0012A3BD0FE
:1006B00032B942E00B60486920F0070040EA020CC2
:1006C00001F0F8004AF6AB221038CAF6AA22A0FBC5
:1006D00002231A0943F2A043C1F814C0C0F6030371
:1006E0009A5C40F2FF335F284FF03F0021EA03019C
:1006F00000FA02F088BF0431C4E9161288600023B2
:1007000001250020636584F83550BDE8F08100BF05
:10071000032AD5D8012540230120DFE802F0030E8B
:10072000030500BF82E700BFAEF1C070B0FA80F0F1
:10073000400904E0032A04D3C2D1CEF300600028AC
:10074000BED0012540230120636584F83550BDE803
:10075000F081000090F834C0BCF1010F04BF02200A
:10076000704770B54FF0010C80F834C0D0F858E0F5
:1007700090F835C0BCF1010F38D14FF0020C80F871
:1007800035C04FF0000CC0F854C0D0F800C08468E9
:10079000056CC06DDCF80060402C26F48026CCF897
:1007A0000060CCF804300B4604BF13460A463F21D4
:1007B00001FA00F0CCF80830CCF80C20CEF8080094
:1007C000DCF8000040F01600CCF800002DB1DCF899
:1007D000000040F00800CCF80000DCF8000040F019
:1007E0000100CCF80000002070BD00BF002180F89F
:1007F0003410022070BD00007047000043F6144121
:10080000C4F201010A68024214BF08607047FFF792
:10081000F3BF00002DE9F04F83B000F1200200F19A
:100820003E4741F20005009207F1FF77C4F202054E
:1008300007224FEAB726A84208BF042200254FF03E
:1008400000084FF00009042E38BF4FEAB72201928A
:100850000AE000BF09F1010908F10208B9F1100F1F
:1008600005F1040500F0A2800F68012202FA09FEDA
:1008700017EA0E0AEED0D1F804C003220CF00307E9
:100880007E1E02FA08F4012E6FEA040B12D8846867
:10089000CE6804EA0B0406FA08F634438460446820
:1008A00024EA0E06CCF3001404FA09F42643466049
:1008B00004E000BF032F01D103271EE0C6688C6847
:1008C00006EA0B0604FA08F42643022FC66014D188
:1008D0006FF00302009E02EA590756F807C005F0C0
:1008E0001C040F220B69A2402CEA0202A3401A4307
:1008F000F251D1F804C00CF00307026807FA08F3BC
:1009000002EA0B021A431CF4403F0260A2D000220C
:1009100043F644030292C4F202031A6843F6004409
:1009200042F480421A601A68C4F2010402F4804260
:100930000292029A29F003024FF6084C2244CFF6A5
:10094000FF7C52F80C3005F00C070F26BE40B34375
:10095000019E06FA07F73B4342F80C30A2684B6849
:1009600042EA0A0743F60C4CDE0258BF22EA0A07A5
:10097000A760C4F2010CDCF800209E0242EA0A07DC
:1009800058BF22EA0A07CCF8007062689E0342EA68
:100990000A0758BF22EA0A0767602268DB0342EAB7
:1009A0000A0758BF22EA0A07276053E703B0BDE8E9
:1009B000F08F00000069084018BF01207047000058
:1009C000002A08BF09048161704700004DF6D81065
:1009D000C2F2000000687047002804BF0120704781
:1009E000F0B581B0044690F83D0028B9002084F8A5
:1009F0003C00204600F0A2F8242084F83D00206846
:100A0000016821F001010160016841F400410160C9
:100A1000016821F40041016000F054FA636848F273
:100A2000A16CC0F2010C40F60011C0F23D0163451B
:100A30003CBF48F28041C0F21E01884202D2012030
:100A400001B0F0BD4DF68361C4F21B31A0FB011271
:100A50002168970CD1F804E04FF496762EF03F050C
:100A600045EA92454D60774348F638160D6AC0F264
:100A70004106A7FB067625F03F07634538BF960C75
:100A8000721C3A430A62CA6948F2A0664CF6FF77C4
:100A9000C0F20106B34222EA07020BD801385B001C
:100AA000B0FBF3F001306FF31F30042898BF04202F
:100AB0001BE000BFA768013857B119277B43B0FB83
:100AC000F3F001306FF31F3070B100F5804007E0A4
:100AD00003EB4303B0FBF3F001306FF31F3018B1A9
:100AE00000F5004001E000BF01201043C861086824
:100AF000D4E9072320F0C000104318430860886839
:100B000048F2FF3204F10C0790438CCF1843104396
:100B1000A6698860C86820F0FF0038433043C86089
:100B2000086840F00100086000202021206484F85B
:100B30003D10206384F83E0001B0F0BD2DE9F04780
:100B400086B045F600460068C4F200060025B042B3
:100B50000595CDE903550295019503D006B0BDE892
:100B6000F08700BF43F630070095C4F202073868EB
:100B700001AC40F00400386038684FF0120800F013
:100B8000040000900098009538684FF0030940F089
:100B90000100386038684FF0040A00F0010000904E
:100BA00000984FF40070019006F5D6302146CDE94B
:100BB0000285CDF81090CDF814A0FFF72BFE4FF46E
:100BC0008070CDE9010803A880E8200606F5D23040
:100BD0002146FFF71FFE0095386940F40000386198
:100BE000386900F400000090009806B0BDE8F08776
:100BF00040F200004DF6D811C2F20000C2F200012E
:100C000000780A68104408607047000080B543F619
:100C10000040C4F20200016841F400710160016803
:100C200041F480610160016841F48071016003203A
:100C300000F086F80F2000F005F800F027F80020FB
:100C400080BD000070B540F20006C2F2000640F21E
:100C500064013278C2F200014FF47A730968B3FB81
:100C6000F2F20446B1FBF2F1084600F0C9FD0F2C88
:100C70004FF0010508D838B94FF0FF302146002267
:100C8000002500F031F87460284670BD82B0002065
:100C900043F640010190C4F202014A6842F48042E6
:100CA0004A604A6802F480420192019A0090086802
:100CB00040F080500860086800F080500090009874
:100CC00002B07047002848BF704700F01F010122A2
:100CD00002FA01F11C2202EAD0004EF20012CEF21A
:100CE000000281507047000010B54EF60C5CCEF249
:100CF000000CDCF80030C3F3022E8EF00704042C45
:100D000028BF0424BEF103034FF0FF3E0EFA04F4A3
:100D100038BF0023A14399400EFA03F39A431143CD
:100D200000F00F0200F160430901043A03F5644347
:100D30006244002848BF02F10C03197010BD000086
:100D40004EF60C51CEF200010A684FF6FF031A402E
:100D500060F30A2242F0806040F0FD700860704746
:100D6000002804BF012070472DE9F04143F6080830
:100D7000C4F202080446D8F8F8030D4600F0070054
:100D8000884207D288F8F853D8F8F80300F0070033
:100D9000A84277D12068810717D5410705D5D8F833
:100DA000001041F4E051C8F80010010705D5D8F84B
:100DB000001041F46041C8F80010D8F80010A26893
:100DC00021F0F0011143C8F80010C00740D1D8F855
:100DD000F80300F00700A84207D988F8F853D8F8BC
:100DE000F80300F00700A8424CD12068410707D55E
:100DF000D8F80010E26821F4E0511143C8F800105F
:100E0000000708D5D8F80000216920F4604040EAC6
:100E1000C100C8F8000000F07DF8D8F8001043F2D7
:100E20004832C1F30311C0F60302515C40F2640280
:100E300020FA01F140F20400C2F200000068C2F2A0
:100E400000021160FFF7FEFE0020BDE8F08100BF48
:100E50006068811E022907D258F8081C89015CBF0E
:100E60000120BDE8F08111E0012807D158F8081CE5
:100E700089035CBF0120BDE8F08107E058F8081C39
:100E8000890703D40120BDE8F08100BFD8F8001025
:100E900021F003010843C8F80000FFF797FD06465C
:100EA00041F28837D8F80000616800F00C00B0EB20
:100EB000810F8CD0FFF78AFD801BB842F2D9032046
:100EC000BDE8F08140F2640043F60801C2F2000080
:100ED000C4F202010068096843F25832C1F382216A
:100EE000C0F60302515CC8407047000040F2640045
:100EF00043F60801C2F20000C4F20201006809686A
:100F000043F25832C1F34231C0F60302515CC8408B
:100F10007047000010B543F60404C4F20204606890
:100F200000F00C0008280BD0042819BF42F2004042
:100F3000C0F2F40047F64000C0F27D1010BD00BFC3
:100F4000206821682368490247F64001C0F27D11FC
:100F500000F03F02C3F388105CBF42F20041C0F2D0
:100F6000F401A1FB00010023FFF732F921680222FE
:100F7000C1F3014102EB4101B0FBF1F010BD0000F3
:100F8000002804BF012070472DE9F04182B00446DB
:100F9000007843F60006C007C4F202060CD0B06821
:100FA00000F00C00042840F081803068800303D5F5
:100FB0006068002800F06881207880071BD5B06841
:100FC00010F00C0F09D0B06800F00C00082840F0B9
:100FD00087807068400200F183803068800703D505
:100FE000E068012840F050813068216920F0F80065
:100FF00040EAC10030602078000713D42078400711
:101000002AD4A569002D00F03A81B06800F00C00E8
:10101000082840F0A580012D40F00E81012002B08B
:10102000BDE8F0816069002800F082800020C4F2F1
:1010300047200121C0F8801EFFF7C8FC054600BF0D
:10104000706F8007DAD4FFF7C1FC401B0228F7D984
:10105000032002B0BDE8F081306C5FEAC0080AD41A
:1010600000200190306C40F080503064306C00F013
:1010700080500190019847F20007C4F200073868D9
:10108000C00547D4386840F480703860FFF79EFC94
:10109000054600BF3868C0053CD4FFF797FC401BED
:1010A0000228F7D9032002B0BDE8F081B06800F053
:1010B0000C00082803D1706840023FF576AF6168E4
:1010C0003068B1F5803F07D0B1F5A02F40F09A808D
:1010D00040F480203060306840F4803030609AE026
:1010E000E068002840F20000C4F247205CD00121F3
:1010F0000160FFF76BFC0546306880073FF574AF71
:10110000FFF764FC401B0228F6D9032002B0BDE8BB
:10111000F08100BFA168306F012905D0052955D1A4
:1011200040F004003067306F40F00100306756E057
:101130000020C4F247200021C0F8801EFFF746FCC3
:10114000054600BF706F80077FF558AFFFF73EFC84
:10115000401B0228F6D9032002B0BDE8F08100BF91
:101160000027C4F2472700203866FFF72FFC022D26
:1011700005460DD13068800140F18A80FFF726FCDA
:10118000401B02284FF00300F4D902B0BDE8F08103
:101190003068800173D5FFF719FC401B02284FF01F
:1011A0000300F5D9F1E700BF00210160FFF70EFC55
:1011B000054600BF306880077FF51DAFFFF706FCCE
:1011C000401B02284FF00300F4D9DEE720F00100B5
:1011D0003067306F002920F0040030677AD0FFF7C5
:1011E000F5FB054641F28837306F800700F18480B7
:1011F000FFF7ECFB401BB842F6D9032002B0BDE874
:10120000F08100BF20F4803030603068002920F485
:10121000802030607AD0FFF7D9FB05463068800324
:101220003FF5CAAEFFF7D2FB401B6428F6D9032076
:1012300002B0BDE8F08100BF7068E16900F480028F
:101240008A4221D1216A00F03F028A421CD147F62E
:10125000C071626A0140B1EB821F15D1A16A4FF6DD
:10126000FF73C903994300F44032A1F580318A42EB
:101270000AD1E16A00F07060B0EB016F04D1002088
:1012800002B0BDE8F08100BF012002B0BDE8F081EE
:1012900004F11C052FCD084340EA8210D9034FF614
:1012A000FF729143A1F5803140EA05600843706008
:1012B00001203866FFF78AFB044600BF30688001D2
:1012C000DDD4FFF783FB001B02284FF00300F5D9A4
:1012D0005BE700BFFFF77AFB054641F2883700BFA6
:1012E000306F800708D5FFF771FB401BB8424FF005
:1012F0000300F5D949E700BFB8F1000F3FF581AE13
:10130000306C20F0805030647BE600BFFFF75EFB5E
:10131000054600BF306880037FF54EAEFFF756FBF1
:10132000401B64284FF00300F4D92EE770470000FB
:1013300070B528B1416A29B100210161142106E08C
:10134000012070BD4168B1F5827F02D01C210022CE
:1013500042500026866290F8511029B980F85060FA
:10136000054600F03DF82846022180F8511090E82B
:101370002E0002F482720C6803F4044324F040044B
:101380000C601A4405F4006305691A4405F0020371
:1013900045691A4405F001038569C4691A4405F4D6
:1013A00000731A4404F03803046A1A4404F08003FA
:1013B000846A1A4304F400531A430A60436A0422FD
:1013C00002EA154203F010031A444A60CA6922F483
:1013D0000062CA610121466580F85110304670BD37
:1013E00070B586B0044643F200002168C4F20100E3
:1013F000002681420596CDE903660296019601D04A
:1014000006B070BD43F630010096C4F202014A698D
:1014100000F5544042F480524A614A6902F4805215
:101420000092009A00960A6842F002020A60096877
:1014300001F0020100910099282101910221CDE9DA
:101440000216032104910521059101A9FFF7E2F994
:1014500040F2E44546F24040C2F20005C4F2020008
:101460004FF0806140224FF4806385E8470005F12A
:1014700010004FF4006C4FF4005E80E808502846DE
:10148000C5E907666E62FFF7B3F8002818BFFEF7DC
:10149000C9FFA564AC6306B070BD00002DE9F04142
:1014A00084B01D4616460F460446FFF78FFA94F89F
:1014B000511001290ED18046002F4FF0010018BFB6
:1014C000002E03D104B0BDE8F08100BF94F85000B5
:1014D000012803D1022004B0BDE8F081012084F886
:1014E00050000320002184F8510061652763A6861F
:1014F000E686A163A187E187A0682164B0F5004F6B
:101500002068616407D1016821F040010160016831
:1015100041F4804101600168490603D4016841F04B
:10152000400101606168731EE268B1FA81F1B3FAAB
:1015300083F349095B09B2F5006F41EA030139D130
:1015400031B137F8021BC1602763E08E0138E086B5
:10155000E08E002870D0681C0BD11AE0216B31F8A6
:10156000022BC2602163E08E0138E086E08E002805
:1015700062D0206881688907F0D4FFF727FAA0EBD2
:101580000800A842F2D338E0FFF720FAE08E0028E6
:1015900052D0206881688907F6D5216B31F8022B7B
:1015A000C2602163E08E0138E086E08E0028F0D131
:1015B00042E000BF39B139780173206B01302063FC
:1015C000E08E0138E086E08EB0B3681C0BD123E0DA
:1015D000216B09780173206B01302063E08E0138A4
:1015E000E086E08E40B3206881688907F0D4FFF779
:1015F000EDF9A0EB0800A842F3D3012084F85100D4
:10160000002084F85000032004B0BDE8F08100BF42
:10161000FFF7DCF9E08E78B1206881688907F7D59B
:10162000216B09780173206B01302063E08E013853
:10163000E086E08E0028EFD12046022101222B46D1
:10164000CDF8008001F072FEE0B1606D40F0200046
:10165000606520206065A06838B90020029020688D
:10166000C1680291806802900298012084F85100BC
:10167000002084F85000606D002818BF012004B0DD
:10168000BDE8F08140F26400C2F20000006849F653
:101690008171C1F25E61A0FB0101480D4FF47A71C6
:1016A000484303906068B0F5827F0BD120468021CB
:1016B00000222B46CDF8008001F038FE0028C4D16E
:1016C000C9E700BF03980028C5D0039801380390EC
:1016D000206880680006BED503980028BBD0039818
:1016E00001380390206880680006B4D5039800286C
:1016F000B1D0039801380390206880680006AAD50D
:1017000003980028A7D003980138039020688068C8
:101710000006D7D49FE7000090F85130012B0BD181
:1017200000294FF0010318BF002A01D11846704765
:1017300090F85030012B03D102231846704700BFA8
:1017400010B5012380F85030032380F85130002376
:10175000436501638286C2868363C0E91033838751
:10176000C38784680268B4F5004F07D1146824F079
:1017700040041460146844F480441460D0F848C0F5
:1017800043F2112E43F21924C0F6000EC0F60004F5
:10179000CCE90F4E43F2F114C0F60004CCE9134338
:1017A000C38E04460C326046FEF7D4FF60B1606D14
:1017B000012340F010006065002084F85000BDE86F
:1017C00010401846704700BF20680168490603D4DE
:1017D000016841F040010160002384F85030416805
:1017E00041F020014160416841F002014160BDE8E3
:1017F0001040184670470000704700007047000016
:10180000411E0020B0EB116F1CBF012070474EF24B
:101810001002CEF2000251604EF62351CEF20001CA
:10182000F0230B7007219060116070477047000033
:101830007047000090F83C20012A4FF0020241D08E
:1018400010B580F83D200268D2F804E0D2F808C054
:101850000C682EF07003234340F6FF34C4F20004FA
:10186000A242536010DCB2F1804F1ED040F2004320
:10187000C4F200039A4218D040F60003C4F20003F9
:101880009A4212D016E000BF40F60043C4F20003B3
:101890009A420AD044F20003C4F201039A4204D0EF
:1018A0000023C4F201039A4204D149682CF080035A
:1018B000194391600121002280F83D1080F83C20FE
:1018C000BDE8104010467047002804BF0120704753
:1018D00010B5044690F83D0028B9002084F83C007B
:1018E000204600F01FF8022084F83D002068211DEA
:1018F00001F014FE012084F8460084F83E0084F8CC
:101900003F0084F8400084F8410084F8420084F8E5
:10191000430084F8440084F8450084F83D0000202A
:1019200010BD00000068B0F1804F18BF704780B54F
:1019300082B00020019043F64000C4F2020001682A
:10194000002241F0010101600068002100F0010067
:10195000019001981C20FFF7C7F91C2002B0BDE8D8
:101960008040FFF7AFB9000090F83D1001291CBF7F
:1019700001207047022180F83D10006840F6FF32D8
:10198000C168C4F20002904241F00101C1600FDC65
:10199000B0F1804F1DD040F20041C4F200018842F6
:1019A00017D040F60001C4F20001884211D017E0C0
:1019B00040F60041C4F2000188420AD044F200011E
:1019C000C4F20101884204D00021C4F2010188421E
:1019D00006D1816801F00701062904BF0020704785
:1019E000016841F0010101600020704790F83C203F
:1019F000012A4FF002026CD080B580F83D20D0F86B
:101A000000C04FF67772DCF8083023EA0202CCF807
:101A100008200B684F2B29DC1F2B45DD202B46D0DF
:101A2000302B44D0402B40F0AF80D1F804E0C9689F
:101A3000DCF82030DCF8202022F00102CCF8202055
:101A4000DCF8182022F0F00242EA011123F00A0229
:101A500042EA0E02CCF81810CCF82020DCF808106E
:101A600041F0470121F0300128E000BF6F2B33DD4A
:101A7000B3F5005F74D0B3F5805F21D0702B40F0D8
:101A80008380D1E901E3C968DCF8082043EA0E034A
:101A900022F47F4243EA01211143CCF80810DCF81C
:101AA000081041F0770109E00BB1102B6CD1DCF884
:101AB000081021F07001194341F00701CCF808101B
:101AC0000022012180F83D10002180F83C10BDE883
:101AD00080401046704700BF502B21D0602B53D15F
:101AE000D1F804E0C968DCF82030DCF8202022F0CE
:101AF0001002CCF82020DCF8182022F4704242EAD0
:101B0000013123F0A00242EA0E12CCF81810CCF8F2
:101B10002020DCF8081041F0670121F01001CDE72A
:101B2000D1F804E0C968DCF82030DCF8202022F08D
:101B30000102CCF82020DCF8182022F0F00242EA62
:101B4000011123F00A0242EA0E02CCF81810CCF878
:101B50002020DCF8081041F0570121F02001ADE70A
:101B6000D1E901E3C968DCF8082043EA0E0322F456
:101B70007F4243EA01211143CCF80810DCF8081039
:101B800041F480419AE700BF01229AE770470000C4
:101B900070B504460068C5680669B10716D515F02A
:101BA000020113D06FF002010161012121778069E8
:101BB000800703D02046FFF7E9FF05E0204600F04C
:101BC0008FF8204600F08EF800202077700719D596
:101BD00015F0040016D020686FF0040101610221A5
:101BE0002177806910F4407F04D02046FFF7CEFFB4
:101BF00006E000BF204600F073F8204600F072F8BF
:101C000000202077300717D515F0080014D0206881
:101C10006FF00801016104212177C069800703D0BA
:101C20002046FFF7B3FF05E0204600F059F82046B4
:101C300000F058F800202077F00619D515F01000B4
:101C400016D020686FF01001016108212177C0696A
:101C500010F4407F04D02046FFF798FF06E000BF55
:101C6000204600F03DF8204600F03CF800202077A8
:101C7000F00718BF15F0010002D1300609D412E0B8
:101C800020686FF001010161204600F02DF8300658
:101C900009D515F0800006D020686FF08001016141
:101CA0002046FFF7C3FD700609D515F0400006D0A9
:101CB00020686FF040010161204600F01FF8B00677
:101CC00058BF70BD15F0200008D021686FF02002C9
:101CD00020460A61BDE87040FFF7AABD70BD000054
:101CE000704700007047000040F2F051C2F200015E
:101CF000884218BF704701202AF0F6BB70470000E9
:101D0000002804BF0120704710B5044690F8410038
:101D100028B9002084F84000204600F021F8242053
:101D200084F841002068C16821F40051C160204658
:101D300001F074FC2068016921F49041016141695E
:101D400021F02A014161C16841F40051C1600020C5
:101D50002021606484F8411084F84210606310BD53
:101D600080B586B041F200010068C4F20101002292
:101D700088420592CDE903220292019202D006B078
:101D800080BD00BF43F630000092C4F202004369F8
:101D900043F010034361436903F010030093009B79
:101DA0000092036843F001030360006800F0010043
:101DB000009000984FF4C06001900220CDE902022B
:101DC000032004900720059001F5704001A9FEF75B
:101DD00021FD06B080BD0000FEE70000B0B586B072
:101DE000044600202189059001200191CDE90200DF
:101DF0000221206801AD04912946FEF70BFD61899F
:101E0000606801912946FEF705FD06B0B0BD0000EF
:101E1000F0B585B0044600890025CDE90005012014
:101E2000029020680226694604950396FEF7F2FCAC
:101E30006089616800048861022005F0A1FE606885
:101E40006189826911438161012005F099FE206852
:101E50002189FEF7AFFD0138B0FA80F047096089AB
:101E6000616800048861022005F08AFE606861896B
:101E7000826911438161012005F082FE2068218979
:101E8000FEF798FD0138B0FA80F0400940EA4707B4
:101E90006089616800048861022005F071FE606855
:101EA0006189826911438161012005F069FE206822
:101EB0002189FEF77FFD0138B0FA80F04009B900B2
:101EC00041EA40076089616800048861022005F0EA
:101ED00057FE60686189826911438161012005F0C4
:101EE0004FFE20682189FEF765FD0138B0FA80F0C9
:101EF000400907446089616800048861022005F098
:101F00003FFE60686189826911438161012005F0AB
:101F100037FE20682189FEF74DFD0138B0FA80F0C8
:101F20004009B90041EA400760896168000488619E
:101F3000022005F025FE6068618982691143816194
:101F4000012005F01DFE20682189FEF733FD0138D0
:101F5000B0FA80F040090744608961680004886134
:101F6000022005F00DFE606861898269114381617C
:101F7000012005F005FE20682189FEF71BFD0138D0
:101F8000B0FA80F04009B90041EA40076089616811
:101F900000048861022005F0F3FD606861898269B0
:101FA00011438161012005F0EBFD20682189FEF7D6
:101FB00001FD0138B0FA80F040090744608961688A
:101FC000000488612089694600901120CDE901054F
:101FD000206804950396FEF71DFCF8B205B0F0BD2D
:101FE00070B5044640890D464EB2616800048861B0
:101FF000022005F0C5FD2089B6F1FF3F02DD216812
:10200000000402E021688A6910438861012005F01C
:10201000B7FD012005F0B4FD606861898269114354
:102020008161012005F0ACFD608961680004886170
:10203000022005F0A5FD69062089216852BF000431
:102040008A6910438861012005F09AFD012005F09E
:1020500097FD60686189826911438161012005F003
:102060008FFD6089616800048861022005F088FDA9
:10207000A9062089216852BF00048A69104388613B
:10208000012005F07DFD012005F07AFD6068618981
:10209000826911438161012005F072FD60896168E8
:1020A00000048861022005F06BFDE90620892168A3
:1020B00052BF00048A6910438861012005F060FD69
:1020C000012005F05DFD60686189826911438161CD
:1020D000012005F055FD60896168000488610220D7
:1020E00005F04EFD29072089216852BF00048A6946
:1020F00010438861012005F043FD012005F040FDFB
:1021000060686189826911438161012005F038FDB1
:102110006089616800048861022005F031FD69076B
:102120002089216852BF00048A6910438861012018
:1021300005F026FD012005F023FD606861898269B4
:1021400011438161012005F01BFD60896168000475
:102150008861022005F014FDA9072089216852BF7B
:1021600000048A6910438861012005F009FD0120FF
:1021700005F006FD60686189826911438161012073
:1021800005F0FEFC6089616800048861022005F0AA
:10219000F7FCE907208921680EBF00048A69104313
:1021A0008861012005F0ECFC012005F0E9FC606885
:1021B0006189826911438161012005F0E1FC608938
:1021C0006268010402209161BDE8704005F0D8BC4E
:1021D00070B586B0054600890026CDE901060120CC
:1021E00003902868022401A905960494FEF712FBC7
:1021F000D5E900016A898B691A438A612989FEF74A
:10220000D9FB012852D1012005F0BAFC28682989A0
:10221000FEF7D0FB012849D1012005F0B1FC286868
:102220002989FEF7C7FB012840D1012005F0A8FC51
:1022300028682989FEF7BEFB012837D1012005F067
:102240009FFC28682989FEF7B5FB01282ED10120C3
:10225000012405F095FC29890020019111210590A8
:10226000CDE9021002212868049101A9FEF7D2FAF3
:102270006889696800048861022005F081FC28896A
:10228000296800048861012005F07AFC6868698982
:10229000826911438161012005F072FC2868298957
:1022A00082690126114381610FE000BF288901A9DD
:1022B00001901120CDE90206286805960494FEF7E6
:1022C000A9FA6889696800048861204605F058FC0D
:1022D000304606B070BD00002DE9F04381B00446E1
:1022E000006899469046228983690F4643EA0201B5
:1022F0008161022005F044FC6068618982690126E1
:1023000011438161012005F03BFC20892168000414
:102310008861012005F034FC6089616800048861EF
:10232000012005F02DFC7F00F9B22046FFF758FE92
:102330002046FFF74DFF00286ED120464146FFF7AB
:102340004FFE2046FFF744FF206821898269114330
:102350008161022005F014FC606861898269114383
:102360008161012005F00CFC20892168000488614E
:10237000012005F005FC6089616800048861012086
:1023800005F0FEFB47F00100C1B22046FFF728FE32
:102390002046FFF71DFFB9F1000F25D0089EA9F1D7
:1023A0000107002503E000BF0135A9451CD02046E8
:1023B000FFF72EFDAF427055F6D920892168000441
:1023C0008861012005F0DCFB606861898269114346
:1023D0008161012005F0D4FB608961680004886197
:1023E000012005F0CDFBDFE72068218982691143D8
:1023F0008161012005F0C4FB606861898269114335
:102400008161012005F0BCFB60896168000488617E
:10241000022005F0B5FB0026608961680004886130
:10242000022005F0ADFB20892168000488610120AD
:1024300005F0A6FB60686189826911438161012012
:1024400005F09EFB2068218982691143816101208A
:1024500005F096FB304601B0BDE8F08370B5044648
:1024600000681546228983690E4643EA02018161AC
:10247000022005F085FB60686189826911438161F2
:10248000012005F07DFB208921680004886101207E
:1024900005F076FB6089616800048861012005F021
:1024A0006FFB7600F1B22046FFF79AFD2046FFF75A
:1024B0008FFE20462946FFF793FD2046FFF788FE52
:1024C00020682189826911438161022005F058FB4F
:1024D00060686189826911438161012005F050FBC8
:1024E0002089216800048861012005F049FB60898A
:1024F000616800048861012005F042FB701CC1B2D4
:102500002046FFF76DFD2046FFF762FE2046FFF7ED
:102510007FFC216822898B69054643EA02008861B5
:10252000012005F02DFB606861898269114381619A
:10253000012005F025FB60896168000488610220A4
:1025400005F01EFB6089616800048861022005F0C7
:1025500017FB2089216800048861012005F010FB29
:1025600060686189826911438161012005F008FB7F
:1025700020682189826911438161012005F000FBF7
:10258000284670BDF0B581B0044600681D46164669
:10259000228983690F4643EA02018161022005F026
:1025A000EFFA60686189826911438161012005F059
:1025B000E7FA2089216800048861012005F0E0FA2B
:1025C0006089616800048861012005F0D9FA78000B
:1025D000C1B22046FFF704FD2046FFF7F9FDE8B140
:1025E0006089616800048861022005F0C9FA2089C9
:1025F0002168000488610120012505F0C1FA6068A6
:102600006189826911438161012005F0B9FA20686E
:1026100021898269114381612DE000BF2046314646
:10262000FFF7DEFC2046FFF7D3FD20462946FFF7E3
:10263000D7FC2046FFF7CCFD608961680004886103
:10264000022005F09DFA208921680004886101209C
:1026500005F096FA60686189826911438161012001
:1026600005F08EFA20682189826911438161012079
:1026700005F086FA0025012005F082FA284601B00F
:10268000F0BD00002DE9F04383B040F60004C4F231
:10269000020416468946074620464FF48051002220
:1026A0009846FEF78DF940F298552A20C2F20005AF
:1026B0008DF801000DF10101284601220123FEF7EA
:1026C000EDFE20464FF480510122FEF779F978BAE9
:1026D000ADF802000DF10201284602220123FEF7A7
:1026E000DDFE70BAADF8040001A9284602220123DC
:1026F000FEF7D4FE20464FF480510022FEF760F929
:102700002B208DF806000DF1060128460122012339
:10271000FEF7C4FE20464FF480510122FEF750F927
:1027200099FA99F0ADF807000DF107012846022249
:102730000123FEF7B3FE98FA98F0ADF809000DF109
:102740000901284602220123FEF7A8FE20464FF485
:1027500080510022FEF734F92C208DF80B000DF18A
:102760000B01284601220123FEF798FE20464FF474
:1027700080510122FEF724F903B0BDE8F083000088
:1027800070B5141A5D1A14311433049E01340135E6
:1027900089B29BB26543FFF775FF40F29854C2F2CD
:1027A00000044FF400602168E0600868AAB240F4B9
:1027B0000060086020463146FEF7AEFF40F2E4407C
:1027C000C2F20000006800BF416831B1416821B128
:1027D000416811B141680029F6D100202168E0600C
:1027E000086820F40060086070BD00002DE9F04327
:1027F00081B098461546814601F11400013A133321
:102800000E4681B292B29BB24846FFF73BFF464567
:1028100038BFA9450DD2089C4F4600BF204600F0A6
:10282000C7FB0137B8B2A842F8D30136B0B2404571
:10283000F2D301B0BDE8F0832DE9F04186B000206D
:1028400043F630010590CDE90300CDE90100009089
:10285000C4F202010A68002542F004020A600A6814
:10286000C4F2020502F004020092009A00900A6885
:1028700001AC42F002020A600A684FF0010802F05F
:1028800002020092009A00900A68032742F00802B0
:102890000A600A6802F008020092009A0090086834
:1028A00040F0010008600868214600F00100009037
:1028B00000984FF4004001902846CDF80880049716
:1028C000FDF7A8FF28464FF400410122FEF778F8F3
:1028D000102005F58066CDE90108304621460497B1
:1028E000FDF798FF304610210122FEF769F84FF4FA
:1028F000805005F50066CDE9010830462146049771
:10290000FDF788FF30464FF480510122FEF758F85A
:10291000042005F54065CDE90108284621460497C5
:10292000FDF778FF284604210122FEF749F806B09A
:10293000BDE8F0812DE9F04F81B0FFF77DFF40F653
:102940000004C4F2020404F58060042100224FF068
:102950000009FEF735F8A4F580652846102100220D
:10296000FEF72EF8642005F01FF8284610210122FA
:102970004FF00108FEF724F8642005F015F8204612
:102980004FF480510022FEF71BF840F298551120B9
:10299000C2F200058DF803000DF103012846012263
:1029A0000123FEF77BFD20464FF480510122FEF704
:1029B00007F8782004F0F8FF20464FF480510022F9
:1029C000FDF7FEFF36208DF803000DF103012846C8
:1029D00001220123FEF762FD20464FF480510122BF
:1029E000FDF7EEFFC0260DF1030128460122012369
:1029F0008DF80360FEF752FD20464FF4805100220F
:102A0000FDF7DEFF3A208DF803000DF103012846A3
:102A100001220123FEF742FD20464FF4805101229E
:102A2000FDF7CEFF05208DF803000DF103012846C8
:102A300001220123FEF732FD20464FF4805100228F
:102A4000FDF7BEFFB2208DF803000DF1030128460B
:102A500001220123FEF722FD20464FF4805101227E
:102A6000FDF7AEFF0C270DF10301284601220123DB
:102A70008DF80370FEF712FD0DF1030128460122C7
:102A800001238DF80370FEF709FD0DF103012846BF
:102A9000012201238DF80390FEF700FD33270DF18D
:102AA00003012846012201238DF80370FEF7F6FC8E
:102AB0000DF103012846012201238DF80370FEF772
:102AC000EDFC20464FF480510022FDF779FFB7203E
:102AD0008DF803000DF10301284601220123FEF7C2
:102AE000DDFC20464FF480510122FDF769FF3520BF
:102AF0008DF803000DF10301284601220123FEF7A2
:102B0000CDFC20464FF480510022FDF759FFBB2039
:102B10008DF803000DF10301284601220123FEF781
:102B2000BDFC20464FF480510122FDF749FF1920DA
:102B30008DF803000DF10301284601220123FEF761
:102B4000ADFC20464FF480510022FDF739FF0DF116
:102B500003012846012201238DF80360FEF79EFC45
:102B600020464FF480510122FDF72AFF2C208DF8DA
:102B700003000DF10301284601220123FEF78EFC1C
:102B800020464FF480510022FDF71AFFC2208DF835
:102B900003000DF10301284601220123FEF77EFC0C
:102BA00020464FF480510122FDF70AFF0DF1030189
:102BB0002846012201238DF80380FEF76FFC204692
:102BC0004FF480510022FDF7FBFEC3208DF8030077
:102BD0000DF10301284601220123FEF75FFC204688
:102BE0004FF480510122FDF7EBFE12208DF8030017
:102BF0000DF10301284601220123FEF74FFC204678
:102C00004FF480510022FDF7DBFEC4208DF8030055
:102C10000DF10301284601220123FEF73FFC204667
:102C20004FF480510122FDF7CBFE20208DF80300E8
:102C30000DF10301284601220123FEF72FFC204657
:102C40004FF480510022FDF7BBFEC6208DF8030033
:102C50000DF10301284601220123FEF71FFC204647
:102C60004FF480510122FDF7ABFE0F208DF80300D9
:102C70000DF10301284601220123FEF70FFC204637
:102C80004FF480510022FDF79BFED0260DF1030189
:102C90002846012201238DF80360FEF7FFFB204642
:102CA0004FF480510122FDF78BFEA4208DF8030024
:102CB0000DF10301284601220123FEF7EFFBA120BD
:102CC0008DF803000DF10301284601220123FEF7D0
:102CD000E5FB20464FF480510022FDF771FEE02015
:102CE0008DF803000DF10301284601220123FEF7B0
:102CF000D5FB20464FF480510122FDF761FE0DF116
:102D000003012846012201238DF80360FEF7C6FB6C
:102D100004208DF803000DF1030128460122012350
:102D2000FEF7BCFB0D270DF103012846012201230C
:102D30008DF80370FEF7B2FB11208DF803000DF142
:102D40000301284601220123FEF7A8FB4FF01308D8
:102D50000DF103012846012201238DF80380FEF7BF
:102D60009DFB2B208DF803000DF103012846012265
:102D70000123FEF793FB4FF03F090DF103012846B5
:102D8000012201238DF80390FEF788FB54208DF873
:102D900003000DF10301284601220123FEF77EFB0B
:102DA0004C208DF803000DF1030128460122012378
:102DB000FEF774FB18208DF803000DF1030128467F
:102DC00001220123FEF76AFB0DF1030128460122CF
:102DD00001238DF80370FEF761FB0B208DF80300D3
:102DE0000DF10301284601220123FEF757FB4FF0A6
:102DF0001F0B0DF103012846012201238DF803B0BA
:102E0000FEF74CFB4FF0230A0DF103012846012287
:102E100001238DF803A0FEF741FB20464FF48051BB
:102E20000022FDF7CDFDE1208DF803000DF1030137
:102E3000284601220123FEF731FB20464FF4805142
:102E40000122FDF7BDFD0DF10301284601220123FA
:102E50008DF80360FEF722FB04208DF803000DF1CE
:102E60000301284601220123FEF718FB0C208DF8F0
:102E700003000DF10301284601220123FEF70EFB9A
:102E800011208DF803000DF10301284601220123D2
:102E9000FEF704FB0DF103012846012201238DF802
:102EA0000380FEF7FBFA2C208DF803000DF10301DF
:102EB000284601220123FEF7F1FA0DF1030128460D
:102EC000012201238DF80390FEF7E8FA44208DF8E3
:102ED00003000DF10301284601220123FEF7DEFA6B
:102EE00051208DF803000DF1030128460122012332
:102EF000FEF7D4FA2F208DF803000DF103012846C8
:102F000001220123FEF7CAFA0DF10301284601222E
:102F100001238DF803B0FEF7C1FA0DF10301284635
:102F2000012201238DF803B0FEF7B8FA20208DF8B6
:102F300003000DF10301284601220123FEF7AEFA3A
:102F40000DF103012846012201238DF803A0FEF7AD
:102F5000A5FA20464FF480510022FDF731FD2120D3
:102F60008DF803000DF10301284601220123FEF72D
:102F700095FA20464FF480510122FDF721FD2046AD
:102F80004FF480510022FDF71BFD29208DF803002E
:102F90000DF10301284601220123FEF77FFA2046A6
:102FA0004FF480510122FDF70BFD01B0BDE8F08F19
:102FB00080B582B040BAADF8060040F29850C2F237
:102FC00000000DF1060102220123FEF767FA02B0AC
:102FD00080BD000080B582B00020019043F6300033
:102FE000C4F202000168002241F48001016000681F
:102FF000002100F48000019001983A20FDF774FE52
:103000003A2002B0BDE88040FDF75CBE70B586B0E6
:10301000002543F630000595CDE90355CDE901556E
:103020000095C4F20200016840F6000441F004017A
:1030300001600168C4F2020401F0040100910099EA
:1030400000950168002241F08001016001684FF4A1
:10305000005601F08001009100990095016841F04F
:1030600001010160016801F00101009100990095E2
:10307000016841F00201016000684FF4005100F066
:103080000200009000982046FDF79AFC0120CDE94F
:10309000020501A9204601960495FDF7BBFB06B089
:1030A00070BD000080B540F2445045F60041C2F2C8
:1030B0000000C4F2000141F6802200234FF4804C4E
:1030C000C0F2060280E80E00C0E9033CC0E9053307
:1030D000C0E90733FDF780FC002808BF80BDBDE8CC
:1030E0008040FDF79FB9000010B540F2985043F2C0
:1030F0000001C2F20000C4F201014FF48272002309
:1031000080E80E0000F10C014FF0020C4FF0010EB0
:103110004FF4007481E808500A21C0E90643C0E971
:103120000833C0E90A31FEF703F9002808BF10BDD3
:10313000BDE81040FDF776B980B586B040F2F0509A
:103140000021C2F200004FF08042632340F2E73CCE
:103150000591CDE90311CDE90011C0E90023C0E9D3
:10316000021C01618161FEF7AFFB002818BFFDF76B
:1031700059F94FF48050029040F2F050C2F2000032
:1031800002A9FEF733FC002818BFFDF74BF940F207
:10319000F050C2F200006946FEF74CFB002818BF51
:1031A000FDF740F906B080BD80B540F2386041F2CD
:1031B0000001C2F20000C4F2010100234FF00C0C28
:1031C0004FF4E13280E80E00C0E90333C0E905C3E3
:1031D000C361FEF795FD002808BF80BDBDE88040B3
:1031E000FDF720B9FEE70000FEE700007047000091
:1031F000806B01684A6822F003024A60416D41F029
:1032000010014165012180F85110FEF78FB80000D0
:10321000806BFEF7F3BA0000B0B584B0846B05464E
:10322000FDF7D4FB29680968C90531D40546206833
:1032300001224168642321F020014160416821F0AE
:103240000201416020460221009500F06FF828B38A
:10325000606D40F020006065606D40F020006065AA
:10326000A06838B9002002902068C1680291806887
:10327000029002980020E086012084F85100606DE1
:1032800030B1204604B0BDE8B040FEF74FB800BFF3
:10329000204604B0BDE8B040FEF7AEBA40F264008C
:1032A000C2F20000006849F68171C1F25E61A0FBC4
:1032B0000101480D4FF47A71484303906068B0F5FE
:1032C000827F09D12046802100226423009500F0EE
:1032D0002DF80028BCD1C3E703980028C0D003987C
:1032E00001380390206880680006B9D5039800284B
:1032F000B6D0039801380390206880680006AFD5E7
:1033000003980028ACD003980138039020688068A7
:103310000006A5D503980028A2D003980138039091
:10332000206880680006D7D49AE700002DE9F043B2
:1033300081B0089C984615460E468146FDF746FB2F
:10334000201A00EB0804FDF741FB40F26401C2F2D1
:1033500000010968C1F3CB3161430091D9F8001035
:103360008A683240921BB2FA82F25209AA423DD0D8
:10337000074618F1010031D0FDF728FBC01BA04221
:1033800038D2009800990028A1F101010091D9F8E4
:103390000010896808BF044601EA0600801BB0FAE5
:1033A00080F04009A842E7D120E000BF88683040A3
:1033B000801BB0FA80F04009A84217D088683040DE
:1033C000801BB0FA80F04009A8420FD088683040D6
:1033D000801BB0FA80F04009A84207D088683040CE
:1033E000801BB0FA80F04009A842DFD1002001B074
:1033F000BDE8F083D9E900014268B1F5827F22F08F
:10340000E00242600BD1D9F80810B1F5004F02D0AC
:10341000B1F5806F03D1016821F040010160D9F856
:103420002810B1F5005F07D1016821F40051016057
:10343000016841F400510160012089F85100002029
:1034400089F85000032001B0BDE8F0837047000008
:10345000FDF7CEBB70B592B006AC20463021FCF72C
:1034600001FF002543F640000595CDE90355CDE960
:1034700001550095C4F202000168022641F0805116
:103480000160006800F080500090009847F2000052
:103490000095C4F20000016841F4404101600068F9
:1034A00000F4404000900098012006904FF48030D6
:1034B00007904FF480000D900C200E906020CDE915
:1034C0000F060420119020460C96FDF759FD18B107
:1034D00072B600BFFEE700BF0F20CDE901064FF432
:1034E0008050CDE9040501A803210395FDF738FCC0
:1034F00010B172B6FEE700BF12B070BD4EF6885034
:10350000CEF20000016841F47001016070470000D4
:1035100040F2F050C2F20000FEF73ABB10B540F2A4
:10352000FF7E0368C4F2000E40F2000C7045C4F246
:10353000010C1DDD40F60002C4F20002904220D0D2
:1035400060451ED040F60042C4F20002904218D0FE
:103550004FF6FF72C4F2000290421CDC704525DC7D
:10356000B0F1804F3AD040F20042C4F2000233E0A2
:10357000B0F1804F05D040F20042C4F20002904208
:10358000E6D14A6823F0700313434FF6FF72C4F28A
:1035900000029042E2DD44F2FF32C4F201029042A6
:1035A00010DC60451AD044F2000213E040F600023D
:1035B000C4F20002904211D040F60042C4F2000270
:1035C0000AE000BF44F60002C4F20102904205D0B6
:1035D00044F20042C4F20102904203D1CA6823F4CB
:1035E0004073134323F080024B69D1F800E08C68EC
:1035F0001A4360450260C462C0F828E002D109693C
:10360000CCF83010012141610169C90708BF10BD24
:10361000016921F00101016110BD0000B0B504464F
:10362000006804F108030ECB0569194325F44055E1
:103630002A4302616269E3691143C268194349F28E
:103640000C639A431143C1604169A26921F440713E
:1036500041F20043114340F48062C4F201039A42F4
:10366000416103D1FDF742FC02E000BFFDF72AFCF7
:10367000E1694FF69C7563681922C0F6FF75B1F5D4
:10368000004FA0FB02011FD15A00DB0FFCF7A0FD89
:1036900048F21F51C5F2EB11A0FB01235A0905F1B5
:1036A000805302FB0300322303EBC000A0FB0101A7
:1036B0004FF4F87000EA111000EB0210C1F3421150
:1036C000084421688860B0BD9A009B0FFCF780FD1C
:1036D00048F21F51C5F2EB11A0FB01235A0902FB6E
:1036E0000500322303EB0010A0FB0101F02000EAEB
:1036F000511000EB0210C1F34311084421688860A7
:10370000B0BD0000FEE70000B0B540F26024C2F298
:1037100000042046402101F0B9FD46F61140C0F6F4
:1037200000001E21002228F03FFF40F21025C2F2C7
:103730000005686001202870204601F071FD0146F7
:10374000686829B129F02EF800202870B0BD00BFAC
:1037500029F018F800202870B0BD000070B50346AD
:10376000B1F90000B2F90040B1F902C0B2F902505B
:10377000B1F904E0B2F90460A042B1F90610B2F95F
:103780000620C8BF0446AC451C80C8BF6546B64588
:103790005D80B8BF764691429E80B8BF0A46002041
:1037A000B4424FF00001D8BF01219542D8BF01209B
:1037B0000840DA8070BD00002DE9F04381B0B0F917
:1037C0000070B1F900309F423EDBB0F90250B1F910
:1037D00002309D4238DBB0F90460B1F904309E42FA
:1037E00032DCB0F90640B1F9060084422CDC7AB331
:1037F0006B46884608461946ADF80070ADF8025091
:10380000914600F099F8F8B1694640464A46ADF84D
:103810000060ADF8025000F08FF8A8B1694640464C
:103820004A46ADF80070ADF8024000F085F858B196
:10383000694640464A46ADF80060ADF8024000F0E7
:103840007BF801B0BDE8F083002001B0BDE8F08353
:10385000012001B0BDE8F083B0F90020B1F90430D7
:103860009A4213DCB0F90420B1F900309A420DDB22
:10387000B0F90220B1F906309A4207DCB0F906002F
:10388000B1F902108842A4BF0120704700207047A0
:103890002DE9F04381B0B0F90460B1F900309E42E7
:1038A00011DBB0F90670B1F902309F420BDBB0F9C1
:1038B0000040B1F904309C4205DCB0F90250B1F986
:1038C0000600854204DD012001B0BDE8F08300BFA1
:1038D000FAB16B46884608461946ADF80040ADF887
:1038E0000250914600F028F898B9694640464A4689
:1038F000ADF80060ADF8025000F01EF848B9694616
:1039000040464A46ADF80040ADF8027000F014F8A9
:1039100020B1002001B0BDE8F08300BF69464046F9
:103920004A46ADF80060ADF8027000F005F880F08E
:10393000010001B0BDE8F0832DE9F041B1F900309C
:10394000B0F90040A3420DDBB0F904E0734509DC97
:10395000B1F90210B0F902C0614503DBB0F90650BD
:10396000A94203DD0020BDE8F08100BF012A54DB3D
:10397000AEEB0400013086B200EBD63006B2A5EB08
:103980000C00013087B200EBD73007B24FEA66086F
:103990007810B8EB670FB8BF70109042A8BF104600
:1039A000021917B200EB0C02BB4216B2D8BFB142EB
:1039B00016DD2A1ABB4212B22ADC914228DB0744E8
:1039C0003FB23F1B07EBD7777E1004EB6705084437
:1039D00002EB67015B1B401A06FB06F10EE000BF1D
:1039E000384400B2001B00EBD070421004EB6007BB
:1039F0000CEB6000DB1B081A02FB02F113FB03F265
:103A000010FB002200208A4298BF0120BDE8F0810F
:103A1000AEEB000424B2A34202DA0120BDE8F0813B
:103A200091421BDAB142F8DC201A02B2AEEB02027C
:103A300002EBD27200EB62005710181A0CEB620214
:103A4000891A10FB00F007FB07F211FB01010020AF
:103A5000914298BF0120BDE8F08100BF271A3EB215
:103A6000AEEB060606EBD676751007EB6607084444
:103A700002EB6601DB1B401A05FB05F1BEE7000007
:103A800070B5B1F90030B2F90040B1F902C0B2F935
:103A90000250B1F904E0B2F90460A342B1F9061092
:103AA000B2F90620B8BF1C46AC450480B8BF6546D5
:103AB000B6454580C8BF764686809142C8BF0A4653
:103AC000C28070BD2DE9F04F87B0054628F0F4FCA8
:103AD00040F2401A04460021C2F2000A04914DB19E
:103AE000E9682846CAF8001028F04CFEDAF8000011
:103AF00004E000BF0FF0DAFFCAF80000006924F00C
:103B00005BFDDAF80010486918B124F055FDDAF8C9
:103B10000010C86924F050FDDAF80000006A24F0B3
:103B20004BFDDAF80010086900287BD0B1F850018D
:103B3000002800F07D8000254FF001090DF11408E8
:103B40000127019405E000BFB1F850710135BD4275
:103B50004AD2002FF8D0481990F830010028F3D14C
:103B6000002404E0B1F8500101348442ECD2AC42AC
:103B7000F8D0081990F830010028F3D1303101EB6A
:103B8000C50001EBC401FFF767FEDAF8001000285A
:103B9000E8D001F1300000EBC50100EBC402404663
:103BA000FFF76EFF40460CF0D5F9DAF80010064634
:103BB00001EBC50030300CF0CDF9DAF80010074603
:103BC00001EBC40030300CF0C5F93844DAF80010CD
:103BD0008642C7D2059A069B01EBC5000263436388
:103BE000081980F83091BDE70020002FCAF80400C2
:103BF00000F09681012F1FDBC81990F82F21EAB140
:103C0000012F19D090F82E21D2B1032F14D390F8A0
:103C10002D21BAB1032F0FD090F82C01043F0028BA
:103C2000E8D110E00020A1F8500107B0BDE8F08F06
:103C30000020CAF8040073E1002704E0013F02E01D
:103C4000023F00E0033F0868C068826922F0010279
:103C500082610868C068826922F002028261B1F85C
:103C60005001002800F05C81002412E0029CDAF888
:103C7000000000EBC40030300CF06CF9DAE90012FF
:103C80001044CAF80400B1F850010134844280F0B5
:103C90000581081990F830010028F4D1BC4205D103
:103CA0000868C068826942F0010282610868C068E1
:103CB000826922F0020282610868C268866B92689B
:103CC0003260007C01EBC402800702F1300523D092
:103CD0000846AB460FF004FFDAF80010A0F1010926
:103CE00008460FF053FF013805B20FFA89F340463A
:103CF0000021002200950CF067F9DAF80000C6F800
:103D000004800068D0E903018269890714D48169BD
:103D100062F341015A4612E00294B5F80090B5F8FA
:103D200004B0B5F80280B5F9064008460FF02EFF42
:103D300084420BDAEB880EE042F0020142468161D8
:103D40003046B26024F03AFD91E700BFDAF8000097
:103D50000FF01CFF431EDAF80010A4EB08020968FC
:103D6000ABEB0900CC680130E46800B20132B4FB6F
:103D7000F0F089690FFA82F84045B8BF804639B340
:103D8000AB46002044460DF1140903930590ADF8AD
:103D9000180000BF651EDAF80000ADF81A50006880
:103DA000494682699047BDF81610BDF91A00411ABC
:103DB000013109B2884502DA2CB2002CEADC21B2CA
:103DC0004FF000080029C8BF00F10108039B5D46C1
:103DD000B5F902001CB208EB000BABF10101A142E6
:103DE00080B225DD4FF000091FFA89F19AB28A42AC
:103DF0000DF114083FF43AAF2988ADF81410A988E2
:103E0000ADF81600DAF80000ADF81810ADF81A3069
:103E1000C6F80480C6F808800068C0688168316010
:103E2000816941F002018161304624F0C7FC1DE741
:103E3000CDF80C800CE000BF304624F0BFFC0399A5
:103E4000584601FA8BFBABF10101A1424346CBDCA2
:103E50002A880FFA81F9ADF81420AA88ADF8160067
:103E6000ADF8182005AADAF80000ADF81A10726053
:103E7000B26000684C45C0689AB28168984631606B
:103E8000BCBFADF81A3099461FFA89F18A42D3D1E6
:103E9000816941F002018161CEE700BF00283FD077
:103EA0000868007C80071BD508460FF019FEDAF879
:103EB0000010441E08460FF069FE013807B223B215
:103EC00040460021002200970CF07EF8DAF800004E
:103ED0000168896BC1F8048004F002FEDAF8001072
:103EE000019C01F130004FF480711EF01DFBDAF8E7
:103EF0000000202100F598701EF016FBDAF8000093
:103F00000021A0F85011204628F0BEFA0490DAF8FB
:103F100000000068436A1BB10499DAF8042098474E
:103F20001DF090FB00F04AF800F004F807B0BDE87F
:103F3000F08F000010B540F2B024C2F200042068F7
:103F4000002818BF1DF07CFE20461C211EF0ECFA54
:103F5000E069002818BF1DF073FE04F11C001C214D
:103F60001EF0E2FAA06B002818BF1DF069FE04F1F4
:103F700038001C211EF0D8FA606D002818BF1DF013
:103F80005FFE04F154001C21BDE810401EF0CCBAC5
:103F900040F2E041C2F20001096804E00A7E42F00A
:103FA00001020A764969002908BF70474A688242BF
:103FB000F4D00A688242F5D1F0E7000070470000B3
:103FC00040F25420C2F20000042101F05FB9000069
:103FD00040F26C20C2F200001C2101F057B9000031
:103FE0002DE9F04F81B00A9F002B08BFB7F5807F05
:103FF00000F0CE80DDF82C904FF0FF38B9F900507A
:10400000B9F802E007FB05F6764208EB162C0FFA2A
:104010008EF607FB06F46442491B921B08EB14243E
:1040200079434FF002087A4308EB112108EB122282
:10403000002BA0F800C044808180C28000F0B280D4
:1040400046F2676159438A1402EBD17404EB840190
:1040500083462046A3EB410628F0BEFE8046601C46
:1040600028F0BAFE824604F15A0028F0B5FE074651
:1040700004F15B0028F0B0FEC6F10A0101FB08F272
:1040800006FB0A2246F267637943C6F2666306FBC3
:10409000001052FB03F2941050FB03F004EBD271BA
:1040A000821002EBD0704211BBF900004F11BBF936
:1040B000021002FB00FCBBF9043007FB11C4B9F885
:1040C0000050BBF9066005EB9428784302FB01FA27
:1040D000B9F8024002FB03F907FB16CC02FB010E04
:1040E00007FB119107FB03AA7B4307FB169705EB20
:1040F0009C2C05EB912102FB060002FB063205EB2E
:1041000097230FFA8CF70FFA88F6B74235461BB2A1
:1041100009B204EB9E2E04EB9A2A04EB902004EBE8
:104120009222B8BF3D468B420C46B8BF1C46A54202
:10413000B8BF2C46B742ABF80040C8BF3E468B42E2
:10414000C8BF19468E42C8BF3146ABF8041000B252
:104150000FFA8EF188420B4612B20FFA8AF7B8BFF7
:104160000346BA423E46B8BF1646B342B8BF1E46E3
:104170008842ABF80260C8BF0146BA42C8BF1746C2
:10418000B942C8BF0F46ABF8067001B0BDE8F08F6A
:10419000013900238180511E0360C18001B0BDE858
:1041A000F08F00BFABB20CEB0307078004EB0E07E8
:1041B00019444780818002EB0E01C18001B0BDE847
:1041C000F08F00002DE9F04F81B0B0F90830B0F960
:1041D0000A70C91AC389D21BB3F5807F036813D153
:1041E000D0E90B76456A06FB01F407FB12447243E3
:1041F00007FB012105EBA4078A103C12002C4FF0AD
:10420000000126D51AE000BF876B868979437A437F
:1042100049114FEA6212AEB1D0E90B76456A01FB53
:1042200006F407FB1244724307FB012105EBA427A8
:104230008A123C12002C4FF000010AD5084601B04A
:10424000BDE8F08F476A0F443C12002C4FF000018C
:10425000F4D4B0F90460B442F0DA816A02EB010AE6
:104260004FEA2A25002D4FF00001E7D4B0F90620CF
:104270009542E3DA90F834104A071DD4038A00F11E
:1042800018080FFA84F92EB2834640464946324652
:1042900019F02CF8ABF8140040464946324618F0A5
:1042A000A5FF01468BF816109BF8341058460023E2
:1042B0000022C9071CD125E005FB06428E070BD45E
:1042C00013F8126003EB420306755B7852004375E6
:1042D0000223C9070CD115E002EB42029E5C134495
:1042E00006755E7846759B7883750323C90709D0E8
:1042F000818AB1F5FC6F05D10021084601B0BDE807
:10430000F08F00BFC17C79B18787A0F83EA0A0F8EC
:104310004040A0F84250426480F8483001B0BDE807
:10432000F04F00F007B800BF0121084601B0BDE81A
:10433000F08F00002DE9F04F87B0044694F83C2040
:10434000006894F83E106F2A0CD8B4F9403000276A
:10435000002BC8BF4FF0FF3762F07F0C6F2911D8D8
:1043600024E000BF912A4FF000071BD3B4F940307E
:10437000B4F90460013382F07F0CB342B8BF012767
:104380006F2913D991294FF000091BD3B4F94220AA
:10439000B4F90630013281F07F089A42B8BF4FF07D
:1043A000010911E04FF0FF0C6F29EBD8B4F942205E
:1043B0004FF00009002AC8BF4FF0FF3961F07F08B5
:1043C00002E000BF4FF0FF08A18A94F834B00691D4
:1043D000A17D05915FEA4B7136D4B4F8400004F139
:1043E00018053844B4F94220238A01B22846CDF892
:1043F0000CC018F07BFF0490B4F84200B4F94010F0
:104400004844238A02B2284618F070FF0290B4F89C
:104410004000B4F84210384401EB0902238A01B28B
:1044200012B2284618F062FF94F834B086465FEA6C
:104430008B7129D400204FF0000A0027DDE9029C8F
:104440005FEA8B7149D49BE094F84810626C07FBDB
:1044500001F31044C25A09FB01F60492B4F9042096
:1044600006FB02F506FB020230F8059032F803E085
:104470005FEA8B7374D400204FF0000A00275FEAD4
:104480008B712AD47CE000BFB4F940A0B4F942603B
:104490000AEB0700CDF804800FFA80F82846414661
:1044A0003246CDF800E018F0A1FE074606EB090001
:1044B00006B228465146324618F098FE82462846F3
:1044C0004146DDF80480324618F090FEDDF800E049
:1044D000DDE9029C5FEA8B7152D55FFA8CF181F0C5
:1044E000FF02BB4602FB07F3059F5FFA88F617FB46
:1044F00001330AFB01F112FB0011C3F3072202FB97
:1045000006F5C1F3072386F0FF0113FB0151090AE9
:10451000A175022A4FF0000198BF032BC0F0A080C4
:10452000022A88BF4146022B98BF4FF0FF318846D0
:10453000032F614638BF0021BAF1030F38BF4FF097
:10454000000C032838BF4FF0FF3CBBF1030F60465F
:104550003AD38C465FFA8CF1FF2918D134E000BFC2
:1045600007FB010007FB0123084410F8017C5018E9
:1045700010F801AC581810F8010C5FEA8B71ACD43C
:10458000FF20A07560465FFA8CF1FF291CD009B9A5
:10459000049918E0049B069F99B2090411FA83F16B
:1045A0004FF61F030422C0F2E07307EB074752FAED
:1045B0008CF219401F40D2087F1A7A4301EB521146
:1045C000194041EA11410691C1B211B1FF2905D14B
:1045D000CE465FFA88F0F8B93FE000BF1FFA89F1D4
:1045E0001FFA8EF2042353FA80F012044FF61F03D1
:1045F000090412FA8EF2C0F2E07311FA89F11A403E
:104600001940C008891A484302EB5010184040EA8C
:10461000104E5FFA88F000B3FF2803D1DDF818E0F0
:104620001BE000BF069F1FFA8EF1B8B209044FF6D7
:104630001F030004042211FA8EF1C0F2E07310FA95
:1046400087F052FA88F219401840D208401A5043B5
:1046500001EB5010184040EA104E0121A4F814E07C
:10466000084607B0BDE8F08F2DE9F04381B004465D
:10467000B0F90800B4F90A10B4F90C2000020902DC
:10468000C4E9090146F267605043811401EBD07719
:1046900007EB8700A2EB4005784228F09DFB80469F
:1046A000F84328F099FB0646C7F15A0028F094FB1E
:1046B0008146C7F1590028F08FFBC5F10A0105FBBF
:1046C00006F201FB082246F267636843C6F266639E
:1046D00001FB090052FB03F2971050FB03F007EBBC
:1046E000D271821002EBD0704211A07C4911C4E952
:1046F0000B1218F087FE94F83420A17C02F0FE0221
:10470000104484F83400084618F072FE94F834100F
:10471000A27C01F0F90160F34101101F002303287E
:1047200038BF012341EA8300216884F8340002F095
:104730001F0020762046216230F8191FA28841F61A
:10474000FC7701F00301E38807EA8202114441EAA1
:104750004331DA08E38982705A0802F50012B2FB8D
:10476000F3F20180218AFF20A263A075A18201B02B
:10477000BDE8F083F0B581B016460C46074627F039
:104780009BFEA2B240F2A034C2F2000405462046CD
:104790003946334619F038FC30B1E0690021A16296
:1047A00070B1204601B0F0BD20462C211DF0BCFEAA
:1047B0004FF00040A0620024204601B0F0BD00BFD1
:1047C000284627F061FE012898BF0120E0612046BD
:1047D00001B0F0BD10B540F27824C2F200042046CA
:1047E000142100F053FD204600F058FDB0B1142113
:1047F00004461DF099FE4DF2D140C0F601004DF285
:10480000C1514DF611124DF29943C0F60101C0F6A7
:104810000102C0F601030FC410BD00BFFEE7000097
:10482000B0B50C460546084610211DF07DFE2868EF
:10483000017804290AD0022906D0012908D1298A41
:104840002180698A618003E0E96800E00A216160F3
:104850004268002A08BFB0BD2146BDE8B0401047FD
:104860002DE9F04F89B0D0F828908046B9F1000FBB
:1048700028D0B8F8100020B9B8F81200002800F0CD
:10488000B58198F83C0000F00F00032840F04E81FD
:10489000484620F05BFC0646484620F0D1FBB8F9BC
:1048A00010100246032748463346009707F002FDE2
:1048B00007460026484620F091FBC10700F04D81D5
:1048C00052E100BFB8F81000B8F81410B8F816207C
:1048D0000844B8F81210A8F814005018A8F81600E8
:1048E0001AF05EF9B8F81410D8F820600AB281EA1C
:1048F000E231A1EBE231B8F8162089B213B282EAB4
:10490000E332A2EBE33292B291424FF0000B88BF48
:104910004FF0010B002E4FF0000900F06781006896
:104920008BF00107047E4FEACB7560424FF0000A1E
:104930000890CDB13046102121F050FA70BB3046BE
:104940004FF4807121F04AFA002800F0618130466E
:104950004FF4007121F042FA304620F0BFFA0646CB
:104960000028E7D154E100BF3046102121F036FA8B
:10497000A0B930464FF4807121F030FA30464FF440
:10498000007121F02BFA002800F04281304620F01F
:10499000A5FA06460028E7D13AE100BF3046049563
:1049A000CDE906A420F01AFB054600F0040007EA52
:1049B0009000039005F0080007EAD000059030460B
:1049C000019720F049FC0446304620F0A3FA8246C5
:1049D000304620F035FB0746304620F0B7FB002C70
:1049E0000294D8BFBAF1010F14DBDDF80CE0BEF180
:1049F000000F04D0B8F91610079A914206DA05990B
:104A000051B1B8F91610089A914205DC0C21B14653
:104A1000069101E0DDF80CE0002FD8BF002849DD49
:104A20000BEA050205F00201D3070BEA510C04D092
:104A3000B8F9143007998B4207DABCF1000F07D0A0
:104A4000B8F9143008998B4202DC0321B146069173
:104A500000284FF00003C8BF0123002F4FF00001D2
:104A60004FF00000C8BF0121BAF1000FC8BF0120FC
:104A7000029C0027002CC8BF01271140079C012978
:104A800004D1B8F91410A14280F2B480DDF818A066
:104A9000049D13EA0C0105D0B8F91410089A91424C
:104AA00040F3AB8017EA0E01059900EA010015D129
:104AB00019E000BF0020BAF1000FC8BF0120029921
:104AC00000294FF00001C8BF012111EA0E0F05991E
:104AD000049DDDE906A400EA010004D0B8F916102F
:104AE000A14280F28A8028B1B8F91600089988425C
:104AF00040F3838030464FF4807121F06FF9019FBD
:104B00003843C00700F0848030464FF4007121F034
:104B100065F940EA0B00C0077AD0304620F0DEF994
:104B2000064600287FF405AF72E000BF484620F03B
:104B300093FB0646484620F0EDF9B8F912100346FB
:104B40000C2748463246009707F0B4FB064600277C
:104B5000484620F043FAC10706D1002F04DD0027A4
:104B6000410707D50AE000BF810758BF27EAE7776A
:104B7000410703D4002E01DD002603E0000758BFE3
:104B800026EAE676B8F91610B8F9323001FA86F559
:104B9000B8F91400B8F930205C1A9D42B8BF264617
:104BA000B8F93630B8BF01FA84F59D42C8BF5E1A25
:104BB00000FA87F1131A9142B8BF1F46B8F93420A2
:104BC000B8BF00FA83F19142C8BF171A39B232B2A6
:104BD0004846002322F0F6FEB8F81400B8F8161084
:104BE0003844A8F814008819A8F8160009B0BDE8E0
:104BF000F08F00BFDDF818A0049D98F83C100C2041
:104C0000002D18BF032001F0F001084488F83C0093
:104C1000B9F1000FEAD098F83C000AF00F0100F05B
:104C2000F000084488F83C0000204EF20106C8F865
:104C3000140048468021CFF6FF76C8F8289021F06E
:104C4000CDF8C8B1484620F0FFFA03282ED002283C
:104C50001ED0012848D1B9F8160041F6FF72013084
:104C600001B24846002307F085FCA8F83200B9F8E5
:104C70001600013831E000BF08F1300041F6FF773F
:104C80003146324641F6FF7300970BF09DF979E00B
:104C9000B9F91A10484641F6FF72002307F06AFC82
:104CA000A8F83200B9F91A2018E000BFB9F81600C8
:104CB000B9F81A100023091A01318AB201EBD23176
:104CC00009B200EB6107781C01B2484641F6FF7259
:104CD00007F050FCA8F83200781E02B24846314670
:104CE000002307F047FC03E041F6FF70A8F83260AC
:104CF000A8F83600484620F09FFA03281ED0022864
:104D00000ED0012838D1B9F91410484641F6FF7287
:104D1000002307F08DFBA8F83000B9F9142025E036
:104D2000B9F91810484641F6FF72002307F080FBDE
:104D3000A8F83000B9F9182018E000BFB9F814003D
:104D4000B9F818100023091A01318AB201EBD231E7
:104D500009B200EB6107781C01B2484641F6FF72C8
:104D600007F066FBA8F83000781E02B248463146CC
:104D7000002307F05DFB03E041F6FF70A8F8306008
:104D8000A8F83400B8F830000921002808BFA8F8B6
:104D90003060B8F834000022002804BF41F6FF70EC
:104DA000A8F83400B8F83200002808BFA8F832602C
:104DB000B8F83600002804BF41F6FF70A8F83600A6
:104DC000484617F005F998F8010080077FF551ADC6
:104DD0000CE700002DE9F04782B0856A002D00F055
:104DE0003C81044690F83C00000700F0368119F041
:104DF000D7FE824600684021477E284620F0EEFF1D
:104E0000002804BF0020A061284620F015FA804643
:104E1000284620F019FA94F83C10814601F00F0161
:104E2000032945D00C2940F01681668B0020B9F18A
:104E3000000F208300F07E8019F0B2FE002E4FF0AC
:104E4000000C00F0BF80006848F21F52407E00272F
:104E5000C0F16400C5F2EB1210FB06F353FB02F342
:104E6000591101EBD3731904374400F0AC8010FBE7
:104E700003F151FB02F14E1106EBD17631041F44D0
:104E800000F0A18010FB06F151FB02F14B1103EB86
:104E9000D1731904374400F0968010FB03F151FBE5
:104EA00002F14E1106EBD17631041F44D4D18AE0D1
:104EB000268B0020B8F1000F60835FD019F070FEE0
:104EC000002E4FF0000C00F0A180006848F21F5245
:104ED000407E0027C0F16400C5F2EB1210FB06F320
:104EE00053FB02F3591101EBD3731904374400F05B
:104EF0008E8010FB03F151FB02F14E1106EBD176CF
:104F000031041F4400F0838010FB06F151FB02F1D5
:104F10004B1103EBD1731904374478D010FB03F124
:104F200051FB02F14E1106EBD17631041F44D5D16D
:104F30006DE000BF30B2C7F16401484348F21F5131
:104F4000C5F2EB1150FB01F0410901EBD070608319
:104F500028461FF0DFFF0746284620F07DF9B4F908
:104F60001A1002460C2628463B46009607F0A2F986
:104F7000024660832846002100236AE030B2C7F170
:104F80006401484348F21F51C5F2EB1150FB01F098
:104F9000410901EBD0702083284620F051F80746E4
:104FA000284620F0D3F8B4F9181003460326284603
:104FB0003A46009607F07EF90146208328460022F3
:104FC000002346E00027B4F91600B4F93210B4F912
:104FD000362000FA87F3A4F81AC00E1A8B42BCBF21
:104FE000374600FA86F34EF201019342C8BF171A02
:104FF0003BB2CFF6FF71284641F6FF7207F0BAFACE
:10500000384402B22846002122E000BF0027B4F94C
:105010001400B4F93010B4F9342000FA87F3A4F87E
:1050200018C00E1A8B42BCBF374600FA86F34EF208
:1050300001019342C8BF171A3BB2CFF6FF71284651
:1050400041F6FF7207F0F4F9384401B22846002215
:10505000012322F0B7FC208B10B102B0BDE8F0872D
:10506000608B0028F9D1B9F1000F16D1284620F045
:10507000F3F8074628461FF04DFF002FD8BF012840
:105080000BDB002F03D4B0F1FF3F06DC47423AB2FE
:1050900028460021012322F095FCB8F1000F16D11B
:1050A00028461FF0CDFF0746284620F04FF8002F76
:1050B000D8BF01280BDB002F03D4B0F1FF3F06DC83
:1050C000474239B228460022012322F07BFC2846C1
:1050D0000A21524616F07CFF60788007BDD494F810
:1050E0003C0000F0F00084F83C000020A06202B018
:1050F000BDE8F087F0B585B004460D4620B90EF046
:10510000D5FC0446002856D00020CDB3029020469E
:105110000EF0E6FC0138ADF80C0020460EF036FD2E
:105120000138ADF80E00684602AA2946FEF716FBC4
:10513000002840D02068017C890725D482690AB103
:1051400069469047B4F8500130B304F130050027A8
:105150006E4600BF304629460022FEF72DFB50BBAD
:10516000B4F850010137874205F10805F2D31F2832
:1051700013D9DDE9020161630121206314E000BF5E
:10518000A4F8500105B0F0BDDDE90201C4E90C014D
:105190006068012109E000BF0020009A019B04EB38
:1051A000C0010A634B63411C60680028A4F85011D9
:1051B00018BF27F0F7FA05B0F0BD000070B538B39E
:1051C00045680446002D08BF70BD002609E000BFF9
:1051D000002AA2600EBF666011444E601CF030FDD4
:1051E000B5B1D4E9001328466A18556883420BD03C
:1051F000A36812688342EBD0002A1CBF53185D607D
:1052000055B16A50EAE700BF65601DB16E50E5E731
:1052100070BD00BF0021A160BDE870401CF010BD52
:10522000002814BF4068002070470000F0B14268B9
:10523000E2B10168032000BF0A445268002A04BF9B
:10524000023870470A445268002A04BF0138704788
:105250000A445268002A08BF70470A445268043062
:10526000002A04BF03387047E6E700BF00207047FC
:10527000006808444068704700680858704700009C
:10528000002814BF8068002070470000033100220E
:1052900021F00301C0E900128260704710B5044696
:1052A000006808301CF0A4F9002808BF10BD216870
:1052B0000022425062684318002A5A6018BF5050BA
:1052C000A1686060002908BFA06010BD10B5044649
:1052D000006808301CF08CF9002808BF10BD216858
:1052E000002342185360A268002A42501CBF114498
:1052F00048606168A060002908BF606010BD0000C0
:1053000030B1416809B9806810B10020704700BF12
:1053100001207047002808BF704742688A4213D0B6
:105320000268836851F802C08B4219D0881840681F
:10533000BCF1000F1CBF0CEB02014860002818BF35
:1053400040F802C0704700BF026811444968002954
:10535000416007BF0021816000208850704700BF76
:105360000021BCF1000FC0F808C018BF0CEB020010
:105370004160704710B50446006804E000680028EA
:1053800008BF10BD20608268002AF7D021469047F0
:105390002068F3E78068002814BFC08A002000B2AC
:1053A000704700002DE9F04F91B00546408CDDF8C4
:1053B00068B040F0040068841646BBF80820284610
:1053C0001F468A462E8420F041FBBBF80820044685
:1053D000284651462F8420F039FB698C814621F004
:1053E00004004C45688403D102D111B0BDE8F08FB0
:1053F000BBF80820284651462E8420F027FB804623
:10540000284651462F8408F001F90068BBF80810BF
:10541000424625F0DBF9BBF80800602828D147F6A2
:10542000FF76B14518BFB04522D1284620F05EFC7A
:1054300081B200EBD13000B24410284620F056FC77
:1054400081B200EBD13000B2B0454FEA600005D127
:10545000611C00F101084145B8BF884647F6FF715D
:10546000894505D1611C00F101094945B8BF89464C
:1054700040F28420C2F20000FFF710FFC0B3C0E981
:105480000389BBF8081001AC05608180C0F808A052
:105490000546204609F0E4FF42F65550C0F60300E9
:1054A000029042F68970C0F60300039042F6C9608C
:1054B000C0F6030004900020CDE90800FF200A9008
:1054C000BBF80000BBF802100B9048420C90DBE9DF
:1054D00003019DF84220079002F0FE008DF8420083
:1054E0002046019506910AF039F811B0BDE8F08F19
:1054F000FEE7000040F28420C2F200001421FFF712
:10550000C5BE00002DE9F04782B00446408C10F47F
:10551000FC7F00F04F816FEA01086FEA02094FF04B
:10552000000A01AD002709E04FF0020A608C00BFBD
:105530000137C0F3C5018F4280F03681E16801EB8D
:10554000C70252689301F3D492B202EA0803B3FA95
:1055500083F35B0912EA090218BF01225340E7D125
:1055600051F8376041F6100130462A4624F0EEFE2D
:10557000002840F01781304641F611012A4624F0F8
:10558000E5FE002840F00E81304641F612012A4621
:1055900024F0DCFE002840F00581304641F613017E
:1055A0002A4624F0D3FE002840F0FC80304641F625
:1055B00015012A4624F0CAFE002840F0F380304648
:1055C00041F614012A4624F0C1FE002840F0EA808A
:1055D000304641F269012A4624F0B8FE002840F026
:1055E000E180304643F20C012A4624F0AFFE002849
:1055F00040F0D880304643F20D012A4624F0A6FE42
:10560000002840F0CF80304641F201012A4624F0C4
:105610009DFE002840F0C680304641F204012A4633
:1056200024F094FE002840F0BD80304641F2020193
:105630002A4624F08BFE002840F0B480304641F228
:1056400003012A4624F082FE002840F0AB80304659
:1056500041F205012A4624F079FE002840F0A2809C
:10566000304641F206012A4624F070FE002840F040
:105670009980304641F232012A4624F067FE002824
:1056800040F09080304643F60F012A4624F05EFE3B
:10569000002840F08780304643F60E012A4624F069
:1056A00055FE00287ED1304640F60A012A4624F0F5
:1056B0004DFE00287FF438AF304640F60B012A46F5
:1056C00024F044FE00287FF42FAF304643F60F014C
:1056D0002A4624F03BFE00287FF426AF304643F6EE
:1056E0000E012A4624F032FE00287FF41DAF30461A
:1056F00040F63C012A4624F029FE00287FF414AF2E
:10570000304640F63D012A4624F020FE00287FF472
:105710000BAF304640F63A012A4624F017FE002827
:105720007FF402AF30464FF404612A4624F00EFEA7
:1057300000287FF4F9AE304640F645012A4624F0B1
:1057400005FE00287FF4F0AE304640F641012A46BF
:1057500024F0FCFD00287FF4E7AE304640F642011D
:105760002A4624F0F3FD00287FF4DEAE304640F6F2
:1057700043012A4624F0EAFD00287FF4D5AE3046E6
:1057800040F649012A4624F0E1FD5FFA8AFABAF1AF
:10579000010F98BF4FF0010A002818BF4FF0020A0E
:1057A000C4E600BF4FF0030A5FFA8AF002B0BDE81A
:1057B000F08700BF4FF0000A5FFA8AF002B0BDE840
:1057C000F087000040F24010C2F20000006870470D
:1057D00070470000C0F30410072828BF0720704757
:1057E00080B540F23020C2F200001821FFF74EFDD4
:1057F00040F29020C2F200000121417080BD000003
:10580000002808BF70472DE9F041164604460D46B2
:10581000FAF733FD40F26808C2F20008D8F8002019
:105820000746204629469047D8F8002005462044E0
:1058300031469047391A8D4202D9BDE8F041704790
:10584000204400BF425D6B1C8B426255F5D8431962
:105850005F78AE1C62198E425770EED89F78EE1CAE
:105860008E429770E9D8DB7804358D42D370E9D940
:10587000E3E700002DE9F04140F25008C2F20008D1
:105880001446D8F804200F4619461D460646904790
:10589000386048B12868D8F8042030440021904787
:1058A0002060BDE8F08100BF00202060BDE8F081ED
:1058B0002DE9F04F8DB0169C8046002C1D46914678
:1058C0008A461CBF00202080B8F1000F38D0BAF102
:1058D000000F4FF0000000F05C8298F800100029E3
:1058E00000F05782179810F0060F2DD000200122EB
:1058F00042F2014302E000BF397904300D2904D897
:1059000002FA01F71F4240F0128108EB0007797894
:105910000D2904D802FA01F61E4240F00581B9783B
:105920000D2904D802FA01F61E4240F0FF80F978F2
:105930000D29E1D802FA01F61E42DDD00330F6E06F
:1059400000200DB0BDE8F08F0021012D0A91C0F2BA
:105950000F82C007CDF8209040F0F6804646002721
:105960000022CDF80080CDF818A000BF40F2500012
:10597000C2F200000992426800200C9030460CA947
:105980009047099A044618F802000C9900280B91D8
:10599000079500F0838019FA85F00497059000259B
:1059A0004FF0FF3000274FF000084FF0000B0CE0E5
:1059B000421C08BF0D46DDE90B1B01370C9116F8A0
:1059C0000B104C46002900F05D8040F25001C2F2FD
:1059D00000014A68824630460BA9904781460698E6
:1059E00021464A4616F0F6FC01B280440898002988
:1059F000C8BF804405980FFA88F188425846A8BF6E
:105A00004FF0FF301AF1010218BF50460A2C00F087
:105A100033800D2C00F03080A4F59C4245F2A61393
:105A20009A42C0F02980A4F120023F2AC0D8DFE8C2
:105A300002F02321212121212121212121212323A0
:105A40002321212121212121212121212323212140
:105A50002121212121212121212121212121212136
:105A60002121212121212121212121212121212126
:105A7000212300BF9CE700BFBBF1000F08BF10F15E
:105A800001020DD0411C0FD0099ADDF80080DDF82D
:105A900018A0049FDDF82090F2B17DE100251AE006
:105AA00000200D4601E000BF5846DDF80080DDF81B
:105AB00018A0099A67B1049F0D2C2FD1B9F10A0FD4
:105AC000DDF8209008BF0C982F4448B94AE100BF88
:105AD000049FDDF820900C9800282F4400F04281AC
